:020000040800F2
:10000000F80400209D010008A5010008A7010008D0
:10001000A9010008AB010008AD01000800000000C4
:10002000000000000000000000000000AF01000818
:10003000B101000800000000B3010008B50100088C
:10004000B7010008B7010008B7010008C90C000893
:10005000B7010008B7010008B7010008B7010008A0
:10006000B7010008B7010008B7010008B701000890
:10007000B7010008B7010008B7010008B701000880
:10008000B7010008B7010008B7010008B701000870
:10009000B7010008B7010008B7010008B701000860
:1000A000B7010008B7010008B7010008B701000850
:1000B000B7010008B7010008B7010008B701000840
:1000C000B7010008B7010008B7010008B701000830
:1000D000B7010008E50E0008B7010008B7010008E5
:1000E000B701000861080008B7010008B70100085F
:1000F000B7010008B7010008B7010008B701000800
:10010000B7010008B7010008B7010008B7010008EF
:10011000B7010008B7010008B7010008B7010008DF
:10012000B7010008B7010008B7010008B7010008CF
:10013000B7010008B7010008B7010008B7010008BF
:10014000B7010008B7010008B7010008B7010008AF
:10015000B7010008B7010008B7010008B70100089F
:10016000B7010008B7010008B7010008B70100088F
:10017000B7010008B7010008B7010008B70100087F
:10018000B7010008B7010008DFF80CD000F0D4F880
:100190000048004729160008F80400200648804758
:1001A00006480047FEE7FEE7FEE7FEE7FEE7FEE75C
:1001B000FEE7FEE7FEE7FEE7890E0008890100087A
:1001C000D2B201E000F8012B491EFBD27047002299
:1001D000F6E710B513460A4604461946FFF7F0FF46
:1001E000204610BD30B505462A460B4612F8010BD5
:1001F00013F8014B08B1A042F8D01CB1002802D07E
:100200006D1CF1E7284630BD70B50F4D00B9286868
:10021000002412E00A4602E09E4203D0521C1378EA
:10022000002BF9D1DAB2224305D02BB124B1002141
:1002300000F8011B04E00446401C0678002EE9D1BA
:100240002860204670BD00005000002070B50646B2
:1002500000F074FF046805460A220021304600F0D1
:1002600033F82C6070BD2DE9F05F05460020924602
:100270009B4688460646814640241BE02846414668
:100280004746224600F079F853465A46C01A914133
:1002900010D311461846224600F060F82D1A67EB7D
:1002A00001084F4622460120002100F057F817EBC5
:1002B00000094E41201EA4F10104DFDC484631460E
:1002C0002A464346BDE8F09F2DE9F04791460F4688
:1002D00080460446002614F8015B2DB100F05EF85C
:1002E0000068405DC007F6D12B2D02D02D2D18D00F
:1002F000641E4A463946204600F054F827B1396852
:10030000A14201D1C7F8008071054FF002040BD55E
:100310004042002803DD00F011FF0460A007BDE8A3
:10032000F08746F48066E4E70028F8DA00F006FF7C
:1003300004606FF00040F2E7064C074D06E0E0680D
:1003400040F0010394E8070098471034AC42F6D31C
:10035000FFF71EFFCC1B0008EC1B0008202A04DB63
:10036000203A00FA02F1002070479140C2F12003C8
:1003700020FA03F3194390407047202A04DB203A07
:1003800021FA02F00021704721FA02F3D040C2F1B5
:10039000200291400843194670470000004870470A
:1003A000C81B00082DE9F05F82460078002715463B
:1003B0008B460AF10104B946302801D09DB113E003
:1003C00014F8010B0127782803D0582801D045B133
:1003D0000AE00DB1102D07D10027102514F8010BEC
:1003E00002E0082500E00A250026B0460EE005FBE5
:1003F000080005FB06F1012701EB10461FFA80F803
:10040000B6F5803F00D3B94614F8010B294600F039
:1004100018F80028EBDABBF1000F05D00FB1641E0D
:1004200000E05446CBF80040B9F1000F06D000F0D0
:1004300085FE02210160C81EBDE8F09F48EA064023
:10044000FAE73A2800D2303820F02002412A01D3BE
:10045000A2F13700884201D34FF0FF30704700000F
:1004600010B50121202000F01FF909484FF48071D8
:100470000024016001210171847103224271C17164
:100480000146044800F048F80348C0F8A04210BDF7
:100490001C00002000140240008042420149086014
:1004A00070470000143C014030B51A4A8379016856
:1004B00053B313688B431360111D0B680468A34387
:1004C0000B60017911440B68046823430B60114BE6
:1004D000083319680468A14319601C1D2168056868
:1004E000A94321604179102905D011440A680068A8
:1004F00002430A6030BD196802681143196021681F
:1005000000680143216030BD0079104402688A43CD
:10051000026030BD003C0140F0B5002201274FF0E1
:10052000030C0B6807FA02F52B40AB422CD106688E
:1005300053000CFA03F4A64306600E79D0F800E0ED
:100540009E4046EA0E0606600E79012E01D0022E6C
:1005500012D18668A64386604E79D0F808E09E40A6
:1005600046EA0E0686604668AE43466045688E7968
:100570009640B6B235434560C568A543C560CC79A1
:100580009C40C3681C43C460521C102AC9D3F0BDF0
:100590004B07DB0E9A40C90810B500EB8100016AD9
:1005A0000F249C40A1430162016A1143016210BD06
:1005B000018370472DE9F0470121302000F074F8E5
:1005C000154C4FF4C0670125276025710026A671E0
:1005D0004FF00308DFF844A084F80580E571214658
:1005E0005046FFF799FF4FF4C049C4F800902571B9
:1005F000A67184F80580E5712146094C2046FFF775
:100600008BFF39465046FFF7D3FF49462046BDE8E9
:10061000F047FFF7CDBF00001C000020001402408F
:100620000010024030B50F23C27801780125FAB1DD
:10063000144A126801F1E02102F4E062C2F5E062BE
:10064000C2F30722C2F10404D3404278A240847866
:100650001C401443220181F80024007800F01F019F
:100660008D404009800000F1E020C0F8005130BD0D
:1006700001F01F0085404809800000F1E020C0F82B
:10068000805130BD0CED00E002490843024908608A
:10069000704700000000FA050CED00E00149086217
:1006A0007047000000000E42044A0029116801D082
:1006B000014300E081431160704700003038024080
:1006C000044A0029116801D0014300E08143116010
:1006D0007047000040380240044A0029116801D0E8
:1006E000014300E08143116070470000443802403C
:1006F00070B5204B1968204C11F00C0104D0661025
:10070000042903D0082903D004601BE0066019E027
:10071000184A121F1168C1F38055116801F03F019A
:1007200015B1B6FBF1F101E0B4FBF1F11468126808
:10073000C4F388146143C2F30142521C5200B1FB5E
:10074000F2F1016019680F2202EA11110B4A545CA0
:100750000168E14041601C68072505EA9424145DA6
:1007600021FA04F484601B6805EA5333D25CD1405B
:10077000C16070BD083802400024F4002C00002045
:1007800002460020510901290BD002290CD008494A
:10079000096802F01F02012393400B4200D00120A0
:1007A000704703497439F3E70149091FF0E7000076
:1007B00074380240054900220A700A70012802D0EC
:1007C000042801D1052008707047000070380240ED
:1007D00001490860704700003C0E4742C0F3012108
:1007E000032907D1074B1968074A21F4F811024081
:1007F0000A431A60034968310A68C0F30B000243D8
:100800000A60704708380240FFFCFF0F38B500222D
:10081000124C0092CA222260532222600F4A1C3AD4
:100820000029116802D00143116012E08143116078
:100830000A4A183A95131168009B01EA10215B1CC3
:100840000093AB4201D00029F5D0116811EA1020C5
:1008500000D00120FF21216038BD00002428004085
:1008600010B54FF48054204600F09CF800280DD0BD
:1008700007490120486007A000F050FC204600F026
:1008800037F86001BDE81040FFF708BE10BD00005A
:100890000000002072746320616C61726D207472BC
:1008A00069670D0A00000000010901EB810100F0F9
:1008B0000F0000EB4100C0B27047002103E0491C6B
:1008C0000A38C9B2C0B20A28F9D2090740EA116051
:1008D0007047000080B240F08000C14303480268C6
:1008E00002F0800211430160704700000C280040B4
:1008F000C0F30F1040F08000C1430348026802F0CB
:1009000080021143016070470C28004008B50D4972
:10091000002000900868400612D44FF0FF300860B5
:100920008B130868009A00F04000521C00929A4213
:1009300001D00028F5D00868400601D4002008BD89
:10094000012008BD0C2800400248016821F0800108
:10095000016070470C280040020010B50F480C469B
:1009600001680F4801EA00014FEA1140E070C1F34D
:100970000423637001F03F03A370C1F3423121707F
:100980000AD1FFF791FFE0706078FFF78DFF60708C
:10099000A078FFF789FFA07010BD00000428004078
:1009A0003FFFFF000B4A0021126802F00403094ACE
:1009B000383A126803EAD03302401A43064B1B68E8
:1009C00003EA101003D00004000C00D001210846F7
:1009D00070470000402800400C280040020010B57D
:1009E00010480C460168104801EA0001C1F30540B7
:1009F0002070C1F30623637001F07F03A3704FF0F2
:100A0000400303EA1141E1700AD1FFF74DFF207066
:100A10006078FFF749FF6070A078FFF745FFA0708E
:100A200010BD0000002800407F7F7F0030B50E4DD4
:100A3000CA222A6053222A600B4C0B4B1C3C1C33ED
:100A4000002920F00402216800F0040004D01143C2
:100A500021601968014303E09143216019688143D3
:100A60001960FF20286030BD2428004070B5124D69
:100A700004460026CA20286053202860FFF746FF5E
:100A8000A8B10D481C38016821F0400101600168DF
:100A90002268114301600848A168143801600168A8
:100AA000A28841EA02410160FFF74EFF0126FF20C4
:100AB0002860304670BD00002428004008B5034976
:100AC00001EB80000090006808BD00005028004045
:100AD00070B514460D46264A0021002810684FEADA
:100AE000406005D000281CDA2078FFF7DDFE19E011
:100AF000002800DBE1702078FFF7DFFE0604607855
:100B0000FFF7DBFE46EA0026A078FFF7D6FE064395
:100B1000E07846EA0046207BFFF7CFFE46EA006019
:100B200010E0E170207BFFF7BFFEA0782178E2782B
:100B300040EA01406178090241EA02410843217B11
:100B400040EA0160A168CA22084361680843084975
:100B50001C310A6053220A60B5F5807F04D00A1F59
:100B60001060FF20086070BD014A1432F8E70000F1
:100B70000828004070B50C460026010060780FD0B0
:100B8000FFF792FEA078FFF78FFEA078E17840EAA9
:100B9000014560782178000240EA4130054315E0C4
:100BA000C10603D520F010000A306070E078FFF72E
:100BB00084FE05046078FFF780FE45EA0025A078F2
:100BC000FFF77BFE0543207845EA40350D4CCA20EF
:100BD000206053202060FFF799FE78B10A48054055
:100BE000084820380560FFF7AFFE06481C3800684B
:100BF000800602D400F07EF800B10126FF202060BC
:100C0000304670BD242800403FFFFF002DE9F04131
:100C10000C460026234F01002078396832464FEAFF
:100C2000416104D0002930DAFFF73EFE2EE00029B2
:100C300000DBE270FFF741FE05046078FFF73DFE40
:100C400045EA0025A078FFF738FE0543E07845EA3D
:100C50000045144CCA201C34206053202060FFF74C
:100C600055FE68B1104805400E4808380560FFF78A
:100C70006BFE3868800602D400F03CF800B1012613
:100C8000FF2020603046BDE8F081E270A078217836
:100C900040EA01456078E178000240EA01400543FE
:100CA000D7E70000082800407F7F7F000549CA225F
:100CB0000A6053220A60034A103A1060FF2008605D
:100CC000704700002428004010B54FF480442046AF
:100CD000FFF768FE28B10649012008602046FFF7AB
:100CE00007FEBDE810404FF48000FFF7D7BB0000BF
:100CF0000000002018B50020104B0090CA2018609A
:100D0000532018600D491839086820F0A0000860C9
:100D10004FF400340868009A00F02000521C009242
:100D2000A24201D00028F5D00868800601D5012034
:100D300000E00020FF21196018BD000024280040B9
:100D4000084ACA2111605321116006491C390B68F9
:100D500023F007030B600B6803430B60FF20106058
:100D6000704700002428004018B50021134B009163
:100D7000CA2119605321196010491C3900280868DC
:100D800003D040F48060086014E020F480600860C4
:100D90000A4918398C130868009A00F00400521CA4
:100DA0000092A24201D00028F5D00868400701D483
:100DB000002000E00120FF21196018BD2428004018
:100DC00008B5034A02EB80000090016008BD0000F6
:100DD000502800400CB50022274900920192086873
:100DE00040F4803008604FF4A043086800F40030FD
:100DF00001900098401C0090019810B9009898420A
:100E0000F3D10868800334D5012001901A4840309E
:100E1000026842F0805202601848026842F4404280
:100E200002601548083002680260026842F400421D
:100E30000260026842F4A0520260031F104A1A6066
:100E40000A6842F080720A600A689201FCD50D4976
:100E500040F205720A60016821F003010160016837
:100E600041F0020101600168C1F381010229FAD158
:100E70000CBD01920CBD0000003802400070004023
:100E800008544007003C0240124810B5016841F484
:100E9000700101601048016841F0010101600E4AD3
:100EA00000210832116002680C4B1A400260031DD9
:100EB0000B4A1A60026822F48022026006480C3055
:100EC0000160FFF787FF03494FF000608039086039
:100ED00010BD000088ED00E000380240FFFFF6FE84
:100EE0001030002410B50F4C40F22551204600F080
:100EF00080F8002814D0204600F008F90B490A4A6F
:100F00008B68D0548868401C88608868104410F84A
:100F1000010C232802D08868802801D30120C860F2
:100F200010BD0000001001405C0000200000002007
:100F30002DE9F041064601210846FFF7B5FB0121E6
:100F40001020FFF7C9FB1E4F072209213846FFF783
:100F50001FFB07220A213846FFF71AFB19484FF4F6
:100F6000C061002401600221017141718471012579
:100F7000C57101463846FFF7CFFA13490C200E60C1
:100F80008C80CC800C818C81104C4881204600F0F4
:100F900067F80121204600F01BF8012240F225519C
:100FA000204600F045F8074825210C380170032140
:100FB00041708170C570BDE8F041FFF733BB0000A0
:100FC000000002401C000020DC0000200010014056
:100FD0000029818902D041F4005101E021F400513F
:100FE000818170470246002012880A4200D0012009
:100FF000704770B501F01F0501260024C1F34213AC
:1010000006FA05F2012B0FD0022B0FD0838A4FEA8C
:1010100011210088134206FA01F600EA060001D009
:1010200000B10124204670BD8389F0E7038AEEE712
:1010300010B5C1F3421301F01F040121A140012B9F
:1010400007D0022B07D01430002A026805D00A43CB
:1010500004E00C30F8E71030F6E78A43026010BD78
:101060007FB50446008A0D46C98820F440500143EC
:101070002182A08941F20C618843A9882A89114301
:101080006A8902431143A181A08A20F44071A88992
:101090000843A0826846FFF72BFB1A48844202D01F
:1010A0001948844201D1039800E00298A1890904FB
:1010B00000EBC00101EB0010296801D5490000E0F8
:1010C0008900B0FBF1F06422B0FBF2F109010B09D9
:1010D0006FF018056B4300EB8300A3891D044FF0EC
:1010E000320306D503EBC000B0FBF2F000F00700BE
:1010F00005E003EB0010B0FBF2F000F00F00084336
:1011000020817FBD00100140001401408088C0F3A1
:1011100008007047C1F30801818070470FB4054B88
:1011200010B503A9044A029800F01CF810BC5DF841
:1011300014FB00000516000854000020004870470A
:101140005800002002E008C8121F08C1002AFAD186
:1011500070477047002001E001C1121F002AFBD137
:10116000704700002DE9FF4F8DB00F460546002661
:1011700006E025280BD0DDE90F1290476D1C761C88
:1011800028780028F5D111B03046BDE8F08F002452
:10119000A246A1460122EC4900E0044315F8013FB4
:1011A000203B02FA03F00842F7D128782A2810D011
:1011B0006FF02F022878A0F13001092914D80AEB2A
:1011C0008A0102EB410144F0020400EB010A6D1CAC
:1011D000F0E701CF5FEA000A03D544F40054CAF1F6
:1011E000000A44F002046D1C28782E2817D115F847
:1011F000010F44F004042A280ED06FF02F02287843
:10120000A0F1300109290AD809EB890102EB41015B
:1012100000EB01096D1CF2E757F8049B6D1C287860
:101220006C280FD006DC4C2817D068280DD06A280F
:1012300014D104E0742810D07A280FD10DE044F4C2
:1012400000140AE044F4801401E044F44014697886
:10125000814202D104F580146D1C6D1C2A786E2A1F
:101260001FD00CDC632A31D004DC002A8BD0582A32
:1012700011D1A3E0642A68D0692A0CD165E0732AF1
:101280002ED004DC6F2A73D0702A04D19BE0752A1B
:101290006FD0782A6ED01046DDE90F129047761C89
:1012A00050E1C4F30250022806D0032809D00428D4
:1012B00001CF09D0066045E101CFF117C0E9006117
:1012C00040E101CF06803DE106703BE117F8040BD9
:1012D0008DF8000000208DF80100EB46012003E0AE
:1012E00057F804BB4FF0FF3061074FF0000102D404
:1012F0000DE008F10101884649450FDA8045F8DB29
:101300001BF808100029F4D108E008F10101884613
:101310008142FADB1BF808100029F6D1DDE90F2322
:10132000AAEB08008146214600F036F9304400EB74
:10133000080604E0DDE90F121BF8010B9047B8F135
:101340000108F7D221464846F7E00A21C4F30253C8
:101350004FF0000B0891022B04D001CFC117032BD3
:1013600009D00AE0FF1D27F00707F7E8020108E0AF
:1013700032E01FE020E000B2C117042B01D140B2DF
:10138000C117031E71F1000307DA4FF0000CD0EB18
:101390000C006CEB01012D2302E0230504D52B2367
:1013A0008DF82430012303E0E30701D02023F7E781
:1013B000984658E00A2110E010210EE010204FF06E
:1013C000000B08900CE010214FF0000B44F00404D7
:1013D0004FF00809089103E008214FF0000B089135
:1013E000C4F30253022B04D001CF0021032B06D0FB
:1013F00006E0FF1D27F00707F7E8020103E080B2CF
:10140000042B00D1C0B24FF0000823072BD5702A5F
:1014100007D0DDF820C08CF0100C5CEA0B0C05D076
:101420000EE040238DF82430012308E050EA010348
:1014300006D030238DF824308DF8252002239846DD
:10144000DDF820C08CF0080C5CEA0B0C0BD150EAE4
:10145000010301D1630706D530238DF824304FF006
:101460000108A9F10109582A04D038A20B9208AA50
:101470000A920BE03AA2F9E75B46089AFEF7F3FE00
:101480000B9B9B5C0A9A521E0A92137050EA01024F
:10149000F2D10A98ADEB000000F1200B600702D5F5
:1014A00024F4803401E04FF00109D94502DDA9EBB5
:1014B0000B0000E0002000EB0B0141440890AAEB78
:1014C000010AE00306D4DDE90F232146504600F06F
:1014D00063F806444FF0000908E009A911F8090073
:1014E000DDE90F12904709F10109761CC145F4DBD3
:1014F000E0030CD5DDE90F232146504600F04CF8FF
:10150000064404E0DDE90F1230209047761C08996C
:10151000481E08900029F5DC08E00A980A9900782E
:10152000491C0A91DDE90F129047761CBBF10001BE
:10153000ABF1010BF1DC21465046DDE90F2300F051
:1015400019F806446D1C1BE60928010030313233BE
:1015500034353637383961626364656600000000EF
:1015600030313233343536373839414243444546D9
:10157000000000002DE9F041044600251E461746F4
:10158000880404D405E039462020B0476D1C641E51
:10159000F9D52846BDE8F0812DE9F0410446002543
:1015A0001E469046C80301D5302700E02027880456
:1015B00004D505E041463846B0476D1C641EF9D598
:1015C0002846BDE8F08100000D494FF4FA52096841
:1015D000B1FBF2F24FF0E02142434A6100238B61FC
:1015E000086940F0010008610869C20701D0C00322
:1015F000FAD5086920F0010008618B61704700008E
:101600003C00002070B5074D044681B22846FFF724
:1016100081FD80212846FFF7E5FC0028F9D020460F
:1016200070BD00000010014086B000242646012154
:101630004020FFF739F8FEF7BDFFFEF711FF4FF42A
:10164000A060FFF721F84FF4E130FFF771FC0020B4
:10165000FFF734FA0025A0F58A414FF001096739F8
:1016600002D000F0FBF934E001210807FFF728F869
:101670000120FFF713F8FFF73DFB0020FFF774FB95
:101680000420FFF75DFB0020FFF710FB4FF48047BD
:101690003846FFF72DF901213846FFF7C7F9012039
:1016A000FFF762FB3F023846FEF7F8FEAD4808211F
:1016B0000760057141714F4680F80690FEF7F4FE11
:1016C000A84803211438017045708570C770FEF773
:1016D000A9FF00F08BF9DFF88CB2DFF88CA2ABF138
:1016E000240B5F46DBF80000E8B101A90120FFF7F9
:1016F00075F99DF806309DF805209DF804109BA013
:10170000FFF70CFD02A90120FFF726F99DF808005C
:1017100000909DF80A309DF809209DF80B1098A0C4
:10172000FFF7FCFC3D60786808B3062E1CD801204A
:10173000641CFFF749FF502C0CD0A02C0FD0F02CCC
:1017400008D0B4F5A07F0AD0B4F57A7F0FD3002477
:10175000761C0CE0CAF8A092CAF8A85207E0CAF8B2
:10176000A052CAF8A89202E07D6000263446F868CC
:10177000BB460028B5D089A18B48FEF733FDE8B3FE
:101780008AA18948FEF740FD88A10020FEF73CFDB4
:10179000FEF75CFD0A27A0F5FA60B0FBF7F107FB46
:1017A0001101B0FBF7F001EB00108DF80B007FA1E9
:1017B0000020FEF729FDFEF749FDB0FBF7F107FB1E
:1017C0001101B0FBF7F001EB00108DF8090077A1D3
:1017D0000020FEF719FDFEF739FDB0FBF7F107FB1E
:1017E0001101B0FBF7F001EB00108DF80A006FA1BA
:1017F0000020FEF709FDFEF729FD00E00DE0B0FB3B
:10180000F7F107FB1101B0FBF7F001EB00108DF8C9
:10181000080002A90120FFF7ADF965A16248FEF7B3
:10182000E1FCE8B361A16048FEF7EEFC5FA1002097
:10183000FEF7EAFCFEF70AFD0C2802D28DF80750ED
:1018400002E040218DF807100A27B0FBF7F107FBF3
:101850001101B0FBF7F001EB00108DF8040053A16B
:101860000020FEF7D1FCFEF7F1FCB0FBF7F107FB1F
:101870001101B0FBF7F001EB00108DF805004BA152
:101880000020FEF7C1FCFEF7E1FCB0FBF7F107FB1F
:101890001101B0FBF7F001EB00108DF8060000E03D
:1018A00003E001A90120FFF7B1F944A13E48FEF78A
:1018B00099FC00284DD03DA13B48FEF7A5FC3BA17B
:1018C0000020FEF7A1FCFEF7C1FC0C2803D2414624
:1018D00065F31F6103E04022414662F31F610A275E
:1018E000B0FBF7F207FB1202B0FBF7F002EB0010BF
:1018F00060F3070188462DA10020FEF785FCFEF766
:10190000A5FCB0FBF7F107FB1101B0FBF7F001EB11
:101910000010414660F30F21884624A10020FEF705
:1019200073FCFEF793FCB0FBF7F107FB1101B0FB72
:10193000F7F001EB0010414660F317418846DDE9FE
:101940000332B907404600F077F817491EA0FFF7A9
:10195000E5FBCBF80850CBF80C5080211248FEF77D
:1019600036FCBEE62400002000804242253032785A
:101970003A253032783A253032780D0A00000000DE
:101980003230253032782F253032782F253032789A
:101990005765656B3A25780D0A00000044415445AF
:1019A00020534554000000005C0000202D00000082
:1019B00054494D452053455400000000414C4152CC
:1019C0004D205345540000002573206F6B2C706C24
:1019D0006561736520776169742072746320616C3E
:1019E00061726D2E2E2E0D0A0000000070B50121CF
:1019F0000803FFF71BF84FF48070FEF76BFF4FF4FE
:101A000000342046FEF74AFD0A49082001250C60F3
:101A100000240C7148718D710846FEF745FD05489C
:101A200029211438017044708470C570BDE870407D
:101A3000FEF7F8BD240000201FB54FF4807400218C
:101A40002046FEF7E3FE6A4621460120FFF740F8F4
:101A500001212046FEF7DAFE1FBD000070B501210E
:101A60000807FEF72DFE0120FEF718FE0120FEF705
:101A7000A1FE4FF4807402E02046FEF7AFFE412045
:101A8000FEF77EFE0028F7D00120FEF7A1FEFFF74B
:101A900031F92A487F2100244160FF2104608160E0
:101AA000FEF7E4FF26481721C17010214170122172
:101AB00081700421017001460120FFF75BF8204886
:101AC0001121001FC4700170417081700146012016
:101AD000FFF79CF80020FFF747F90420FFF730F9E3
:101AE0000020FFF7E3F84FF480452846FEF700FF9B
:101AF00001212846FEF79AFF0120FFF735F92D0254
:101B00002846FEF7CBFC0E4908200C310D600C7105
:101B1000487101258D710846FEF7C6FC084803216F
:101B20000838017044708470C570FEF77BFDBDE815
:101B3000704044F267510020FFF742B9EC000020EA
:101B4000180000200040404040404040404041419B
:101B50004141414040404040404040404040404082
:101B6000404040404005020202020202020202021C
:101B70000202020202202020202020202020200219
:101B800002020202020290909090909010101010A9
:101B90001010101010101010101010101010101045
:101BA00002020202020288888888888808080808D9
:101BB00008080808080808080808080808080808A5
:101BC0000202020240000000451B0008EC1B000856
:101BD000000000205C00000044110008481C0008C0
:101BE0005C0000209C04000054110008000000006C
:101BF00000000000000000000000000000000000E5
:101C000000000000000000000000000000000000D4
:101C100000000000000000000000000001020304BA
:101C20000102030406070809007A030A0000000005
:101C3000000000000102030406070809000000007C
:081C400000000000000000009C
:040000050800019D51
:00000001FF
