:020000040800F2
:10000000E87F0020B9050008B9030008BB03000819
:10001000BD030008BF030008C10300080000000082
:10002000000000000000000000000000C303000802
:10003000C503000800000000FB6300088D100008E5
:10004000D3050008D3050008D3050008D305000830
:10005000D3050008D3050008D3050008D305000820
:10006000D3050008D3050008D3050008D305000810
:10007000D3050008D3050008D3050008D305000800
:10008000D3050008D3050008D3050008D3050008F0
:10009000D3050008D3050008D3050008D3050008E0
:1000A000D3050008D3050008D3050008D3050008D0
:1000B000D3050008D3050008D3050008D3050008C0
:1000C000D3050008D3050008D3050008D3050008B0
:1000D000D305000845120008D3050008D305000821
:1000E000D3050008D3050008D3050008D305000890
:1000F000D3050008D3050008D3050008D305000880
:10010000D3050008D3050008D3050008D30500086F
:10011000D3050008D3050008D3050008D30500085F
:10012000D3050008D3050008D3050008D30500084F
:10013000D3050008D3050008D3050008D30500083F
:10014000D3050008D3050008D3050008D30500082F
:10015000D3050008D3050008D3050008D30500081F
:10016000D3050008D3050008D3050008D30500080F
:10017000D3050008D3050008D3050008D3050008FF
:10018000D3050008D305000800F002F800F041F89C
:100190000AA090E8000C82448344AAF10107DA45E2
:1001A00001D100F036F8AFF2090EBAE80F0013F0F3
:1001B000010F18BFFB1A43F001031847B864000091
:1001C000D8640000103A24BF78C878C1FAD8520722
:1001D00024BF30C830C144BF04680C6070470000C1
:1001E0000023002400250026103A28BF78C1FBD840
:1001F000520728BF30C148BF0B607047632906F023
:100200007680002070471FB506F032F91FBD10B58B
:1002100010BD06F0A7F81146FFF7F5FF00F038F81B
:1002200006F0C5F803B4FFF7F2FF03BC00F0ACFF23
:100230001CB53BA005F0E4FF01AC00231A461946AB
:100240003D48009403F040FB3CA005F0D9FF01AA13
:100250000021394803F068FC1E2000F06AFFECE73B
:100260001CB53CA005F0CCFF01AC00231A46194692
:100270003148009403F028FB3CA005F0C1FF01AA1F
:1002800000212D4803F050FC142000F052FFECE751
:100290008AB000F009FF4FF4A06000F0ADF94FF410
:1002A000165000F079FF00F04DF909A802F017F997
:1002B00000244FF00C0809AD059480263149CDF893
:1002C00008800694CDE9074506272346AFF26F0262
:1002D000CDE900712B48CDE903642BA1C43804F0AB
:1002E000A2FA05942A49CDF808800694CDE907457D
:1002F0000023AFF2C302CDE900712548CDE90364C4
:1003000024A1C43804F08FFA09AA24A10A4803F0F2
:10031000F6F909A802F038FA22A005F071FFFEE70D
:100320007461736B32206973206372656174652038
:100330006F6B0D0A000000005C0600207461736B97
:10034000322069732072756E6E696E67202E2E2EB4
:100350000D0A00007461736B31206973206372654C
:10036000617465206F6B0D0A000000007461736B8F
:10037000312069732072756E6E696E67202E2E2E85
:100380000D0A0000980100205461736B31000000D9
:100390005C0400205461736B32000000675F6D7570
:1003A000746578006E657665722072756E2E2E2EDD
:1003B0002E2E2E2E0D0A00007047FEE7FEE7FEE708
:1003C000FEE77047704700000CB5002254490092C8
:1003D0000192086840F4803008604FF4A043086838
:1003E00000F4003001900098401C0090019810B972
:1003F00000989842F3D10868800334D50120019019
:1004000047484030026842F0805202604548026826
:1004100042F44042026042480830026802600268CA
:1004200042F400420260026842F4A0520260031FDC
:100430003D4A1A600A6842F080720A600A689201B6
:10044000FCD53A4940F205720A60016821F00301C7
:100450000160016841F0020101600168C1F381019E
:100460000229FAD10CBD01920CBD314810B50168CA
:1004700041F4700101602A48016841F00101016006
:10048000274A00210832116002682A4B1A40026094
:10049000031D294A1A60026822F480220260204863
:1004A0000C300160FFF790FF21494FF00060803968
:1004B000086010BD70B51A4D083528681F4B2049DB
:1004C00010F00C0004D05E10042803D0082803D0DC
:1004D0000B601BE00E6019E0114A121D1068C0F39A
:1004E0008054106800F03F0014B1B6FBF0F001E05A
:1004F000B3FBF0F013681268C3F388135843C2F3D8
:100500000142521C5200B0FBF2F0086028680C4A0D
:10051000C0F30310121D105C0A68C2400A6070BD6F
:10052000003802400070004008544007003C024080
:1005300088ED00E0FFFFF6FE103000240024F400F8
:10054000000000202DE9FC470121302000F01BFBBA
:1005500001248DF8044000268DF806600327DFF89B
:1005600050904FF4C0658DF8057000958DF80740E8
:100570006946484600F004F98DF804408DF806609D
:100580008DF805708DF807400A4C4FF4C048CDF83F
:1005900000806946204600F0F3F82946484600F0FE
:1005A00054F94146204600F050F9BDE8FC870000B0
:1005B00000140240001002400948804709480047E3
:1005C000FEE7FEE7FEE7FEE7FEE7FEE7FEE7FEE703
:1005D000FEE7FEE704480549054A064B7047000060
:1005E0006B04000889010008E81F0020E87F002054
:1005F000E83F0020E83F00202849084328490860D8
:10060000704730B50F23C27801780125FAB1244A2A
:10061000126801F1E02102F4E062C2F5E062C2F387
:100620000722C2F10404D3404278A24084781C40DF
:100630001443220181F80024007800F01F018D404E
:100640004009800000F1E020C0F8005130BD01F009
:100650001F0085404809800000F1E020C0F880516B
:1006600030BD104A114001430D48001F0160704722
:100670000B4A121D0029116801D0014300E081439B
:10068000116070474FF0E0210428086903D020F082
:1006900004000861704740F00400FAE70000FA0522
:1006A0000CED00E080FFFF1F774910B5884206D1AE
:1006B0000121084600F099FA002101205BE073490E
:1006C000884206D10121022000F08FFA0021022089
:1006D00051E06F49884206D10121042000F085FADB
:1006E0000021042047E06B49884206D101210820FF
:1006F00000F07BFA002108203DE06749884206D1DE
:100700000121102000F071FA0021102033E063492C
:10071000884206D10121202000F067FA0021202024
:1007200029E05F49884206D10121402000F05DFAAE
:10073000002140201FE05B49884206D10121802032
:1007400000F053FA0021802015E05749884202D179
:10075000012184150AE05549884202D1012144153E
:1007600004E0534988420AD101210415204600F0D3
:100770003CFA00212046BDE8104000F036BA10BD1A
:10078000F0B5002201274FF0030C0B6807FA02F5C1
:100790002B40AB422CD1066853000CFA03F4A6435D
:1007A00006600E79D0F800E09E4046EA0E0606602C
:1007B0000E79012E01D0022E12D18668A6438660E2
:1007C0004E79D0F808E09E4046EA0E0686604668FC
:1007D000AE43466045688E799640B6B23543456073
:1007E000C568A543C560CC799C40C3681C43C46000
:1007F000521C102AC9D3F0BD4FF6FF7101600021D1
:10080000017141718171C171704708B541F4803245
:100810000092C261C1610099C161C169C069009063
:1008200008BD0246002012690A4200D0012070472C
:10083000006980B270470246002052690A4200D027
:1008400001207047406980B270470183704741833F
:1008500070470AB101837047418370474161704717
:1008600042694A40426170474B07DB0E9A40C90813
:1008700010B500EB8100016A0F249C40A143016286
:10088000016A1143016210BD0000024000040240F1
:1008900000080240000C0240001002400014024018
:1008A00000180240001C02400020024000240240C8
:1008B00000280240F848016841F001010160F64A51
:1008C0000021083211600268F44B1A400260031DD7
:1008D000F34A1A60F04BF34A84331A60F04A103A34
:1008E0001B1D1A60026822F480220260EA480C3064
:1008F0000160181D01607047E7490022891C0A70D9
:100900000870704702460020510901290CD00229C5
:100910000CD0E1497431096802F01F0201239340B1
:100920000B4200D001207047DB49F4E7DA4970310F
:10093000F1E718B500204FF4A04400903120FFF7F4
:10094000E1FF0099491C0091A14201D00028F5D097
:100950003120FFF7D7FF002800D0012018BDCE4A74
:10096000116821F0F80141EAC00010607047CE49DB
:1009700008607047C849002270310A700A70012867
:1009800002D0042801D1052008707047C7490860CB
:10099000704741EA82115A0810B5C54B029C03EB1F
:1009A00002421143014341EA0460BB49091D08604A
:1009B00010BDBD4908667047800140EA0170B64924
:1009C000843108607047B84988667047800140EA02
:1009D0000160B14940EA0270883108607047B2494D
:1009E00008677047B049C8647047AB4B08331A6852
:1009F000084322F0EC62104318607047A64B08339E
:100A00001A68084322F07842104318607047A24ADF
:100A10000832116821F003010143116070479E48BC
:100A20000830006800F00C0070479B4A08321168DB
:100A300021F0F001014311607047974A08321168B4
:100A400021F4E051014311607047934A0832116864
:100A500021F4604141EAC0001060704770B58E4BD0
:100A600008331968934C11F00C0104D06610042966
:100A700003D0082903D004601BE0066019E0864A11
:100A8000121D1168C1F38055116801F03F0115B1C5
:100A9000B6FBF1F101E0B4FBF1F114681268C4F3A4
:100AA00088146143C2F30142521C5200B1FBF2F1BF
:100AB000016019680F2202EA11117F4A545C016833
:100AC000E14041601C68072505EA9424145D21FA81
:100AD00004F484601B6805EA5333D25CD140C160E2
:100AE00070BDC0F30121032908D16B4B083319688D
:100AF000724A21F4F81102400A431A6066497031C3
:100B00000A68C0F30B0002430A6070476749443922
:100B10000860704765494039086070476249C1F80C
:100B20005C0170475C4A8C321168401E21F01F0145
:100B3000014311607047584A8C3211686FF0FF030F
:100B400021F4F85103EB0020084310607047524A2B
:100B50008C32116821F440110143116070474E4AF4
:100B60008C32116821F440010143116070474A4AF8
:100B70008C32116821F440310143116070475049B3
:100B8000C1F8E0017047444A30320029116801D0B1
:100B9000014300E08143116070473F4A343200292D
:100BA000116801D0014300E08143116070473A4A67
:100BB00038320029116801D0014300E081431160FF
:100BC0007047354A40320029116801D0014300E0E6
:100BD000814311607047304A44320029116801D0C6
:100BE000014300E08143116070472B4A1032002915
:100BF000116801D0014300E0814311607047264A2B
:100C000014320029116801D0014300E081431160D2
:100C10007047214A18320029116801D0014300E0D1
:100C20008143116070471C4A20320029116801D0AD
:100C3000014300E0814311607047174A24320029C4
:100C4000116801D0014300E0814311607047124AEE
:100C500050320029116801D0014300E08143116046
:100C600070470D4A54320029116801D0014300E059
:100C7000814311607047084A58320029116801D039
:100C8000014300E0814311607047034A603200294C
:100C9000116817D0014316E000380240FFFFF6EA62
:100CA000103000240030002000004742800E4742F0
:100CB0000000FFFF0024F40014000020FFFCFF0FE1
:100CC00000104742814311607047194A002911689A
:100CD00001D0014300E081431160704714490C3199
:100CE0000128086803D020F008000860704740F031
:100CF0000800FAE70E4A573A0029117801D001435B
:100D000000E081431170704709481030016841F0DC
:100D10008071016070470146054A0020583A126808
:100D20000A4200D0012070470149563908707047C7
:100D300064380240CD4910B5884206D10121102007
:100D4000FFF77BFF0021102020E0C949884202D133
:100D500001214C0429E0C749884202D101218C04B9
:100D600023E0C549884202D10121CC041DE0C349DA
:100D7000884202D101210C0517E0C149884209D1FE
:100D800001212020FFF759FF00212020BDE810405D
:100D9000FFF753BFBB49884202D101218C0704E011
:100DA000B94988420AD1012144052046FFF73BFF9B
:100DB0002046BDE810400021FFF735BF10BD7FB5CC
:100DC0000446008A0D46C98820F440500143218220
:100DD000A08941F20C618843A9882A8911436A8954
:100DE00002431143A181A08A20F44071A8890843DD
:100DF000A0826846FFF732FE9C48844202D0A04899
:100E0000844201D1039800E00298A189090400EB13
:100E1000C00101EB0010296801D5490000E08900FC
:100E2000B0FBF1F06422B0FBF2F109010B096FF0A5
:100E300018056B4300EB8300A3891D044FF03203B8
:100E400006D503EBC000B0FBF2F000F0070005E0B0
:100E500003EB0010B0FBF2F000F00F00084320811C
:100E60007FBD4FF41651016000218180C180018156
:100E70000C2242818181704710B5028A4C8822F48D
:100E800070630A8822438C88C9880C4322431A4322
:100E9000028210BD0021018041808180C1807047A5
:100EA0000029818902D041F4005101E021F4005170
:100EB00081817047028B02F47F420283028B0A43D6
:100EC000028370470029818902D041F4004101E08A
:100ED000C1F30E01818170470029818A02D041F45B
:100EE000006101E021F4006181827047C1F30801D3
:100EF000818070478088C0F308007047028A22F022
:100F00000F020282028A0A43028270470029818905
:100F100002D041F0020101E021F00201818170471D
:100F2000828922F40062828182890A438281704729
:100F3000028A22F020020282028A0A430282704759
:100F40000029018A02D041F4804101E021F480416E
:100F500001827047818941F0010181817047002938
:100F6000818A02D041F0080101E021F0080181826C
:100F70007047028BD2B20283028B42EA01210183C5
:100F800070470029818A02D041F0200101E021F060
:100F90002001818270470029818A02D041F010012E
:100FA00001E021F0100181827047828A22F0040260
:100FB0008282828A0A43828270470029818A02D013
:100FC00041F0020101E021F0020181827047002A14
:100FD000828A01D00A4300E08A438282704710B5BA
:100FE000C1F3421301F01F040121A140012B07D0DE
:100FF000022B07D01430002A026805D00A4304E00F
:101000000C30F8E71030F6E78A43026010BD024664
:10101000002012880A4200D001207047C943018095
:10102000704770B501F01F0501260024C1F342137B
:1010300006FA05F2012B0FD0022B0FD0838A4FEA5C
:1010400011210088134206FA01F600EA060001D0D9
:1010500000B10124204670BD8389F0E7038AEEE7E2
:101060000A0A01219140C9430180704700100140E4
:101070000044004000480040004C00400050004048
:101080000014014000780040007C0040374810B553
:101090000078012807D101F09EFA04F0C0FBBDE8FA
:1010A000104001F0A3BA10BD10B56FF00400FFF7B7
:1010B000E9FA2F482F49304B0068314CB0FBF1F270
:1010C000B0FBF1F01A802D4A1168B4FBF1F14143F5
:1010D00010684FF47A72B2FBF0F058804FF0E020C5
:1010E000026942F0020202614161016941F00101BD
:1010F000016110BDF8B54FF0E02700247E691E495C
:10110000098800FB01F5684601F0D7FAB969B869AA
:101110008842FCD002D2A1EB000102E0A6EB000263
:1011200011440C440146AC42F1D3684601F0FEFA8A
:10113000F8BD38B504460D48007888B111480078EC
:1011400070B90D4D6888844205D3B4FBF0F06A464F
:10115000082104F03BFA6888B4FBF0F100FB11446D
:101160004FF47A706043FFF7C5FF38BD5D00002083
:101170000000002000127A002400002040660008D1
:1011800040420F005C00002070473B490A8852062D
:10119000FCD5C2B28A807047F0B50646012187B0FF
:1011A0000846FFF7F0FC01211020FFF714FD334D36
:1011B000072209212846FFF757FB07220A21284664
:1011C000FFF752FB02218DF814108DF815104FF423
:1011D000C060002404908DF8164001278DF8177028
:1011E00004A92846FFF7CCFAADF80440ADF8064054
:1011F000ADF80840ADF80C400C201F4CADF80A00CB
:10120000009669462046FFF7DAFD01212046FFF7E8
:1012100047FE40212046FFF701FF012240F2255101
:101220002046FFF7DCFE25208DF8180003208DF8FE
:1012300019008DF81A008DF81B7006A8FFF7E1F968
:1012400007B0F0BD70B501F0C6F90B4D40F2255462
:1012500021462846FFF7E5FE50B12846FFF74AFE33
:10126000C1B207A004F0CCFF21462846FFF7F8FEE4
:10127000BDE8704001F0BAB9001001400000024022
:10128000256300001FB56846FFF7E8FB019804B02E
:1012900010BD10B5FFF7F6FF11490A6842F08072E1
:1012A0000A60104900224A600A6842F001020A609E
:1012B000BDE8104000F076B80A484068704710B5A5
:1012C0000446FFF7DFFF0021074A0B4604F021FF29
:1012D00002460B462046002104F01BFF10BD000013
:1012E000FCED00E0001000E040420F0010B500F0FF
:1012F000DFF804461021694800F0D8F92046BDE81F
:10130000104000F0D9B8664910B500200860FFF71A
:10131000C0FFBDE81040E9E7FEE770B505460C00E8
:101320000ED075B100F0C4F8064610225B4928467D
:1013300000F0C4FC304600F0BFF80020208070BDF3
:10134000FEE70A20088070BD70B50C00054612D07B
:1013500095B1102100F0A4FC102810D200F0A8F8DC
:101360000646102229464D4800F0A8FC304600F001
:10137000A3F8002005E0FEE70A20088070BD4FF4C6
:101380007A70208070BDFFF797BF7047020004D0CD
:101390004348006810B1002102E0FEE74FF4FA6113
:1013A000118070473E490860704710B500F08BF817
:1013B000183810BD10B500F086F8103810BD00F0D8
:1013C00082B8F0B50C0E0B0C0D0A0026354AD0F190
:1013D000FF378E411BD24FF6FF76D0F1FF378E419B
:1013E0000AD26FF07F45D0F1FF308D4101D2105D00
:1013F000F0BDD05C0830F0BDFF23D0F1FF308B4151
:1014000002D2505D1030F0BD505C1830F0BD4FF688
:10141000FF740023241A8B4111D26FF07F44002304
:10142000241A8B4105D2000E40EA0120105C2030C6
:10143000F0BD000C40EA0140105C2830F0BD0023F4
:10144000D0F1FF048B4105D2000A40EA0160105C34
:101450003030F0BD105C3830F0BD08B100F036B867
:101460000820704708B100F031B81020704708B16B
:1014700000F02CB82020704700B550EA01020BD0D4
:10148000C243521CCB4343F1000310401940FFF705
:1014900098FFC0F13F0000BD402000BD880600203D
:1014A0002C0000207A64000872B6704762B670475C
:1014B000EFF3108072B6704780F31088704730BF2A
:1014C000704720BF7047B0FA80F0704790FAA0F0E4
:1014D000B0FA80F0704790FAA0F07047A0F1410197
:1014E000192902D96138192801D801207047002034
:1014F0007047A0F14101192905D92039192902D9CC
:101500003038092801D80120704700207047613821
:10151000192801D801207047002070474138192848
:1015200001D801207047002070473038092801D8C1
:1015300001207047002070473038072801D801206B
:10154000704700207047A0F13001092905D91139F1
:10155000052902D96138052801D8012070470020EB
:101560007047202803D0092801D0002070470120AF
:10157000704720280BD00D2809D00A2807D00C2846
:1015800005D0092803D00B2801D000207047012086
:10159000704720385E2801D801207047002070472E
:1015A00021385D2801D80120704700207047A0F144
:1015B00020015E2916D8202814D00D2812D00A2820
:1015C00010D00C280ED009280CD00B280AD02139B5
:1015D0001A2907D320391A2904D330380A2801D30D
:1015E000012070470020704741B2002901DB1F280D
:1015F00003D97F2801D00020704701207047A0F157
:101600004101192900D82030C0B27047A0F1610112
:10161000192900D82038C0B2704700B50B46FFF733
:10162000F5FF02461846FFF7F1FF824201D1012083
:1016300000BD002000BD0000FD48FE490246C0E993
:10164000001200218160C160016141618161C1615D
:1016500001620163C162416200F148018163C163BB
:101660004FF4806101644164F3480260704710B533
:1016700000231C46641C41EA0323042CFAD310F017
:10168000030404D109E0521E00F8011B641C22B1BE
:10169000042CF8D301E008C0121F042AFBD202E098
:1016A00000F8011B521E002AFAD110BD0A46002183
:1016B000DDE730B4814202D930BC00F0C5BD104432
:1016C0001144401E491E431A042B28D300F0030383
:1016D00001F00304A34201D1012400E00024F4B18D
:1016E000032B07D109E05B1E11F8014900F80149FD
:1016F0005BB2521E0AB1002BF5DAC01EC91E04E00F
:1017000051F8043940F80439121F042AF8D2C01CD9
:10171000C91C04E011F8013900F80139521E002AF1
:10172000F8D130BC704770B5034662B16BB161B19E
:1017300013441144012003F0030401F00305AC42FB
:1017400005D1012504E0012070BD002070BD0025F9
:10175000DDB1BCB113F8015D11F8016DB54200D0E7
:101760000020521E641E0128F0D1002AF1D109E0A8
:1017700053F8044D51F8045DAC4200D00020121F14
:1017800001280AD1042AF3D207E013F8014D11F819
:10179000015DAC4200D00020521E0128D6D1002AA3
:1017A000F3D170BD30B5C36BB3FBF2F402FB14345C
:1017B0000CB1121B00E00022446C11448C4201D297
:1017C000002030BD5D18611AC5631A44416410469B
:1017D00030BD10B5B0FBF3F403FB140000B1181AD0
:1017E000B2FBF3F403FB14240CB11B1B00E0002339
:1017F00010441A44491E02FB010010BD2DE9FC5F94
:101800001F4614008A46834600D101AC0020884E52
:101810002060FFF74DFE009053465A460121D6F84E
:101820004480F06BFFF7D5FF054642F2E279404570
:1018300006D90098FFF740FEA5EB0800206012E0F3
:10184000524659463046FFF7ADFF0600009807D0D4
:10185000FFF732FE42F2107038803046BDE8FC9F40
:10186000FFF72AFE2560A7F800900020F6E72DE993
:10187000F04116460D460446FFF71AFE6368996B61
:1018800001B96B4BDF6B5C6CFFF716FE012D06D9BF
:10189000B7FBF5F005FB107000B1281A241A42F2CC
:1018A000107030802046BDE8F0810A46014660484D
:1018B000DDE7B8B1614A0260002242608260C26026
:1018C000026142618261C2610262826242630263BA
:1018D000C26242628263C2630264426442F2107076
:1018E0000880704742F21170FAE72DE9FF4F89B086
:1018F0008A46DDE91879044607B906AF002038604A
:1019000049462046FFF7D5FFB9F80010A1F51C5055
:10191000103859D14848006890B10020DFF8108194
:101920000290FFF7C5FD05905FEA0A000BD0024662
:101930000B98002613184048B3465B1E056848E024
:1019400042F2E7713EE0D8F83C1003910423C3460D
:1019500045461A460C990398FFF73BFF03990490FC
:1019600008440890DDE916230C99FFF732FF009038
:1019700000990498464608440290D8F84410019112
:10198000884261D90598FFF797FDDDE901103CE039
:10199000A86B504506D1D5F840C00B998C4501D1B4
:1019A0002E4618E0296C0144491E834213D382421B
:1019B00003D98B4201D98A4209D80598FFF77CFDEB
:1019C00042F27F71A9F800100DB0BDE8F08FAB4670
:1019D000ED68002DDCD136B9C4E90EAA0B9820645D
:1019E0000B982646606404231A46D8F83C000C99EC
:1019F000FFF7EFFE0490D8F844100191884206D911
:101A00000598FFF759FD01990498401A34E0F06BEE
:101A10000890DDE916230C99FFF7DBFE0090716C4E
:101A20000191884210D90598FFF746FD08E00000B3
:101A30009806002048454150300000204E4F4E454A
:101A4000DDE90001401A46E00C98042280000146BE
:101A500001904046FFF7A6FE039008B100201CE06D
:101A6000D8F844400598FFF727FDBAF1000F07D0DA
:101A70000198A04200D9001B386042F2E27054E0A5
:101A80000298F6E7DDE916123046FFF78BFE90B1BB
:101A9000039941F8280008F101000C99804688421A
:101AA000F0D3A64220D1C4E902B55FEA0B0016D0FC
:101AB000CBF80C4015E0F56B746C0598FFF7FCFC57
:101AC0000C98DDE91623A0EB08012846FFF781FEFC
:101AD000A04200D9001B386042F2D87025E06E4861
:101AE00004603DB1AC6005E07069C4E904607461F4
:101AF00000B104616948C4E900060898A061009932
:101B000008980844401EE061039820620098A06293
:101B100017986063169820630C98E0620C986062D6
:101B20000598FFF7C9FC42F21070A9F800004BE7D6
:101B300070B50D460446FFF7BBFC646AFFF7BCFCBA
:101B400042F210702880204670BD70B515460446DC
:101B5000FFF7AEFC616A49B1E26A91420BD9FFF727
:101B6000ABFC42F295702880002070BDFFF7A4FC0A
:101B700042F2DE70F7E7491E6162226A52F82140A4
:101B8000FFF79AFC42F210702880204670BD70B5B5
:101B900014460E460546FFF78BFCEA6A911B491E68
:101BA00042F295768A4202D96A6A8A4204D9FFF7DC
:101BB00083FC2680002070BD2A6A52F82150FFF76E
:101BC0007BFC42F210702080284670BD2DE9F04168
:101BD00016460D460446FFF76BFCE76A626A8446C8
:101BE000BA4204D3FFF768FC42F2DD701EE04FF00A
:101BF000000E1346206A04E050F82310A94205D0D5
:101C00005B1C9F42F8D8BEF1000F03D050F82210A1
:101C100040F82310D4E9080140F82150606A401CC4
:101C200060626046FFF748FC42F2107030803AE68E
:101C30002DE9F04115460E4604464FF0FF37FFF7F9
:101C400037FC0246E16A606A884205D31046FFF716
:101C500033FC42F2DD701CE04FF0000C05E0236A1B
:101C600053F82030B34205D0401C8142F7D8BCF174
:101C7000000F09D00C1A1046641EFFF71DFC42F23B
:101C80001070288020460EE61046FFF715FC42F241
:101C900088702880384606E630000020504F4F4CB0
:101CA000002201E0401C521C18B103780BB18A429B
:101CB000F8D3104670474FF0FF31F1E730B50028F8
:101CC00011D089B10346002405E0491C03F8015BEB
:101CD000641C4BB141B10D780DB19442F5D39442DF
:101CE00001D20021197030BD002030BD4FF0FF320D
:101CF000E4E730B5002816D0B1B1002A13D003466E
:101D000001E05B1C10D01C78002CFAD104E0491CC7
:101D100003F8015B641C3BB131B10D780DB1944205
:101D2000F5D30021197030BD002030BD4FF0FF32D7
:101D3000DFE7F0B532B330B111B304460B46401CB7
:101D4000491C002508E0E9B108784042F0BD401C7C
:101D5000491C5B1C641C6D1C26781F78BE4204D194
:101D60001EB110B109B19542F1D395420AD0F4B237
:101D7000FAB2944201D0B01AF0BD1EB10028E2D0F0
:101D80000078F0BD0020F0BD4FF0FF32D1E72DE923
:101D9000F0475FEA020A41D070B181B10446461CA7
:101DA0000F464D1C0078FFF72AFC81463878FFF774
:101DB00026FC4FF0000811E079B3087829E000789C
:101DC00021E008F1010814F8010F6D1C761C7F1C3E
:101DD000FFF715FC81463878FFF711FC814505D1E6
:101DE000217819B116B10DB1D045EAD3D04515D03F
:101DF0004946814503D0A9EB0000BDE8F087080003
:101E0000FBD026B13078BDE8F047FFF7F8BB25B12D
:101E10002878FFF7F4FB4042EFE7FFE70020ECE70C
:101E20004FF0FF32B3E710B5002812D081B1002384
:101E300003E0401C03F101030BD004781CB1944271
:101E400001D08B42F5D38B4202D2E1B2914200D055
:101E5000002010BD0A464FF0FF31E4E730B51546CB
:101E600004000FD071B1491EFFF71AFF20180AD0E5
:101E700000E0401EA04202D00178A942F9D10178C9
:101E8000A94200D0002030BD0A464FF0FF31E5E7FF
:101E900030B5002803D00BB1044607E0002030BD68
:101EA0008D4200D122705B1E641CF8D02578002D75
:101EB000F5D0002BF4D130BD4FF0FF33E8E72DE92A
:101EC000F0418C46060032D0BCF1000F2FD072B327
:101ED000501C01D0511C01E04FF0FF310D4611465E
:101EE0003046FFF7DDFE044629466046FFF7D8FE80
:101EF000050014D0A5421AD8301911D01CEB0500EA
:101F00000ED0671B0024301980462A466146FFF731
:101F100010FF010006D00020641C28B106E0304606
:101F2000BDE8F0810120F7E7BC42ECD909B10020FF
:101F3000F6E74046F4E74FF0FF32C0E72DE9FF5FD8
:101F4000074611980E9D1446894600286CD000263D
:101F5000B246B9F1000F00D10126A01E232800D3FC
:101F6000012615B32846FFF714FB01281CD1302D9C
:101F70001BD0A5F13000C1B20F98012802D0A5F105
:101F8000410001E0A5F16100C0B20A2C02D8A142D3
:101F900006D307E00A2903D3A4F10A01884201D23B
:101FA000012000E0002000B10126119A56BBB8467E
:101FB000012003E0B8FBF4F8401CC0B2A045F9D200
:101FC0000399012900D0002100EB010CCC4518D861
:101FD0004FF0000B4B46484500D318464DB1A9EBD6
:101FE0000000401A4B4610F0FF0F04D0302D04D0F3
:101FF00001E00844C3B2002000E0012082460EB98F
:1020000001E001264B461099D01809B1002101705A
:102010000021401E04E056B13F2200F80129491C6E
:102020009942F8D39EB3002004B0BDE8F09F27B9D1
:1020300019B1039A012A16D024E0B7FBF4F204FB8D
:102040001272D2B20A2A01D2303207E0DDF83CC067
:10205000BCF1010F01D0373200E05732B7FBF4F783
:1020600000F80129DBE75AEA0B0205D0BAF1000FAC
:1020700008D05A1E914205D12D2200F801294FF0B7
:10208000010BCCE7002DCAD000F80159C7E7FFE7E4
:102090001198C9E77FB50DF1200C9CE870008DE820
:1020A00078000023FFF74AFF04B070BD2DE9FF411F
:1020B0001C46DDE90B650A9F002802DA4042012335
:1020C00000E00023CDE90047CDE90265FFF736FFC8
:1020D00004B025E72DE9FF5F1E4615465FEA0109BA
:1020E000824601D10DF10809C9F800A00E9808B97F
:1020F00003A80E90002101705FEA0A0003D0012DB1
:1021000001D0242D01D900208EE70446007801E09B
:1021100014F8010FFFF72DFA0128F9D020782B28A9
:1021200003D02D2805D0002007E04FF0000B641CE1
:1021300004E0012E00D1641C01208346019425B1E6
:10214000082D11D0102D22D112E02078302801D096
:102150000A251CE014F8010F582803D0782801D074
:10216000082514E010250CE0207830280ED00EE071
:10217000207830280BD114F8010F582801D0782886
:1021800005D16078FFF7DFF9012800D1641C002633
:10219000B046009627783846FFF7ABF9012824D1DE
:1021A0003846FFF7C2F901280CD03846FFF7AFF9DF
:1021B000012809D0373FF9B2A94216D2B8F1000F71
:1021C00004D00EE0303FF6E7573FF4E71D4850F8E3
:1021D0002500B04203D306FB05168E4201D24FF014
:1021E00001080098641C0028D4D0B8F1010F01D177
:1021F0004FF0FF360198844202D0C9F8004001E058
:10220000C9F800A00E99304681F800B00CE708B577
:1022100000230093FFF75EFF08BD1CB501AB0093E0
:102220000123FFF757FF9DF804204FF0004122B132
:10223000884200D2414208461CBD8842FCD36FF060
:1022400000401CBD7C650008002800D170470029B3
:1022500000D17047002A00D170472DE9F81F00F027
:10226000030301F00304A34211D1C3F1040303F0FB
:102270000303012B1DD3012A00D2F2E011F8014B18
:1022800000F8014BA3F10103A2F10102F1E700F014
:10229000010301F00104A34200D094E0012B44D3D8
:1022A00011F8014B00F8014BA3F10103A2F1010267
:1022B000F4E7B2F5B47F26D3B1E8F81FA0E8F81F21
:1022C000B1E8F81FA0E8F81FB1E8F81FA0E8F81F70
:1022D000B1E8F81FA0E8F81FB1E8F81FA0E8F81F60
:1022E000B1E8F81FA0E8F81FB1E8F81FA0E8F81F50
:1022F000B1E8F81FA0E8F81FB1E8F81FA0E8F81F40
:10230000A2F5B472D5E7282A06D3B1E8F81FA0E8F1
:10231000F81FA2F12802F6E7042A06D351F8043B7D
:1023200040F8043BA2F10402F6E7202A42D331F838
:10233000023B20F8023B31F8023B20F8023B31F827
:10234000023B20F8023B31F8023B20F8023B31F817
:10235000023B20F8023B31F8023B20F8023B31F807
:10236000023B20F8023B31F8023B20F8023B31F8F7
:10237000023B20F8023B31F8023B20F8023B31F8E7
:10238000023B20F8023B31F8023B20F8023B31F8D7
:10239000023B20F8023B31F8023B20F8023B31F8C7
:1023A000023B20F8023B31F8023B20F8023BA2F14D
:1023B0002002BAE7022A06D331F8023B20F8023B9A
:1023C000A2F10202F6E7102A42D311F8013B00F80D
:1023D000013B11F8013B00F8013B11F8013B00F80B
:1023E000013B11F8013B00F8013B11F8013B00F8FB
:1023F000013B11F8013B00F8013B11F8013B00F8EB
:10240000013B11F8013B00F8013B11F8013B00F8DA
:10241000013B11F8013B00F8013B11F8013B00F8CA
:10242000013B11F8013B00F8013B11F8013B00F8BA
:10243000013B11F8013B00F8013B11F8013B00F8AA
:10244000013B11F8013B00F8013BA2F11002BAE791
:10245000012A06D311F8013B00F8013BA2F1010269
:10246000F6E7BDE8F81F704770470000F84CFFF72B
:102470001FF82168491C2160FFF71EF803F018FDC2
:10248000F5E700B5F24A89B0002111600B220591F1
:102490000691CDE90720EF48EF4AF04B006812683B
:1024A0001B680292CDE903013F20CDE90003002320
:1024B000AFF24702EAA1EF4802F0B5F909B000BD5A
:1024C0000020ED4B024600EB400103EB8101401C74
:1024D0000A810A60C0B24A604028F4D3704710B540
:1024E000044603F0EBFCE5480022EF490270E448A3
:1024F0000270E4480270E4480260E4480260E44884
:102500000270E4480270E4480270E4480260E44863
:102510000260E4480260086830B1E448006818B11D
:10252000096804C0491EFCD1E1480260E14802602C
:10253000E1480260E1480260E1480260E14802606F
:10254000E1480260E148027001F08AFBFFF7B8FF42
:10255000204600F047FF208800283BD1204600F0AD
:10256000EEFF2088002835D1204601F00FF82088A2
:1025700000282FD1204601F060FB2088002829D1B7
:10258000204601F021FE2088002823D1204602F0B9
:1025900079F8208800281DD1204602F068FE2088A6
:1025A000002817D12046FFF76CFF2088002811D1A2
:1025B000204602F03DFF208800280BD1204603F082
:1025C000E7FB2088002805D100F0EBFBBDE81040B8
:1025D000FFF74ABF10BDAA480078012805D1A749D6
:1025E0000878FA2801D2401C08707047A44810B53A
:1025F000007801282BD1FEF75BFFA049044608783C
:1026000000B3401E10F0FF0008701BD19D480078F9
:10261000C0B901F02EFB9F490870974900EB4000BC
:1026200051F820009949086097490968884209D003
:1026300050F8901F491C0160A5480168491C0160C1
:1026400003F0D6FE2046BDE81040FEF735BF10BDB2
:102650008A4810B50078002824D18A4800780028DC
:1026600020D1FEF725FF044601F003FB89490870DD
:10267000814900EB400051F82000844908608249FC
:102680000968884209D050F8901F491C01609048A1
:102690000168491C016003F0A6FE2046BDE8104019
:1026A000FEF70ABF10BD774810B50078012803D1A6
:1026B000FEF702FE7949086010BD70B504466F4808
:1026C000007810B146F6625019E06D480078012894
:1026D00002D045F6896012E06A4D2878FA2802D3C4
:1026E00045F209200BE0FEF7E3FE06462878401C81
:1026F0002870FFF7D8FF3046FEF7DEFE002020806E
:1027000070BD604810B5007800280ED1FEF7D4FDEA
:1027100062490968401A62490A68824200D2086028
:1027200060490A68824200D2086010BD70B5044654
:102730005248007810B146F6655023E050480078C2
:10274000012802D045F689601CE04E4E307870B109
:10275000FEF7AEFE05463078401E10F0FF003070E8
:1027600008D02846FEF7A8FE46F663500AE046F673
:10277000645007E0FFF7C5FF2846FEF79DFEFFF710
:1027800067FF0020208070BD70B53D4D044628785D
:1027900018B145F68A60208070BD01F06AFA3D49A3
:1027A00008703B490870344900EB400051F82000A4
:1027B00036490860344908600120287003F002FEA1
:1027C00043F69920E7E70021018047F25C607047FB
:1027D00038B14268C1F8C02081688968096AC1615E
:1027E000704791F83400022803D0072803D039A09D
:1027F00002E039A000E03AA0C1F8C000704730B54F
:102800008A68002592F8374002891AB1521C028169
:1028100002680BE0012202814D600D60016014E04E
:10282000936893F83730A34203D85268002AF7D14F
:1028300007E032B1136853B1C1E900325960116049
:1028400030BD4D6042680A605160416030BD4DE06E
:1028500058000020206600081C6600081866000862
:1028600075432F4F532D4949492049646C652054C5
:1028700061736B00301A0020001B00205C000020F8
:102880005D00002090000020C8000020CC00002047
:1028900076000020770000207800002084000020CF
:1028A000880000208C0000202C66000828660008A4
:1028B0003C00002040000020440000204800002090
:1028C0004C0000205000002054000020A6000020F2
:1028D0009C000020200000005461736B2051000018
:1028E0005461736B2053656D000000001160C1E9F5
:1028F0000052016030BD10B5C28700242346016339
:102900000EE04B6041F8103B641C41F8103BA4B250
:1029100041F80C3C21F8083C41F8043C41F8180C03
:102920009442EED310BD70B5044690F83700F849D4
:1029300000EB400001EB8001D4E90320002540B109
:102940000B895B1E0B81C26092B110612561E5604D
:1029500070BD2AB10889401E088115610A60F5E73B
:102960000D810D604D6094F8370001F0A0F9EDE79E
:102970004860EBE738B50446022531B16B460222C8
:1029800002F08FFDBDF8000028B184F836502046D3
:10299000FFF7C9FF38BD032084F83600F7E72DE9BB
:1029A000F041DC4D07460C4628680026194680F8A1
:1029B000342080F83560FFF7DDFF64B1FC6004F17E
:1029C0000806012239462868FFF795FF3946304648
:1029D000FFF715FF02E02868C687066320462968CE
:1029E000BDE8F041F4E610B502890024012A0BD0BD
:1029F0000A6862B14B6873B153601A600289521E53
:102A000002814C600C6010BD04604460F6E74A68C7
:102A100014600260F2E754604260EFE770B506466A
:102A2000C58F046B07E0E06821460830FFF7DBFF45
:102A30006D1EADB22034002DF5D10020F08730633B
:102A400070BD10B50B6BC98F08E0DC68844202D101
:102A5000DA61186110BD491E89B220330029F4D112
:102A600010BD90F83710AA4A01EB410102EB810139
:102A700000230A8942B1521C0A810A68C0E9032373
:102A80000A6810610860704701220A81C36003610F
:102A900008604860704790F837109D4A01EB41018B
:102AA00002EB810100230A893AB1521C0A81C360FA
:102AB0004A680261D0604860704701220A81C360A1
:102AC00003610860F7E710B5044690F8370001F09D
:102AD000E0F8914994F8370009788842204602D1FD
:102AE000BDE81040D7E7BDE81040BAE710B504468E
:102AF00002F0DEFB94F83610490703D42046BDE807
:102B00001040E0E710BD2DE9F041064691F836008F
:102B100000270C4615464FF00108082835D2DFE89B
:102B200000F03434040434341A1A94F834000328BE
:102B300003D121463046FFF784FFE765A4F86070B3
:102B4000256416B12046FFF769FF2046FFF7CEFF48
:102B500084F8367015E094F83400032803D1214638
:102B60003046FFF76EFFE765A4F86070256416B184
:102B70002046FFF753FF204602F09AFB042084F81A
:102B8000360084F8358084F83470BDE8F08163A2A3
:102B9000C1F8C020816811B18968096A00E05FA1AD
:102BA000C161704770B580F83710C58F046B0FE0B6
:102BB000E668308A0836012807D921463046FFF7F3
:102BC00012FF21463046FFF71AFE6D1EADB22034CB
:102BD000002DEDD170BD0021016041600181704781
:102BE0000289521C028102684A6000220A6002685F
:102BF00002B1116001600289012A00D14160704771
:102C000010B50B6BC98F08E0DC68844202D1DA6131
:102C1000186110BD491E89B220330029F4D110BDBE
:102C20002DE9F0410C4691F8361000250226174692
:102C30000829AAD2DFE801F032320404323219192D
:102C400094F83410032903D13A462146FFF7D8FF00
:102C5000E565A4F8605020462764FFF7DFFE2046B4
:102C6000FFF744FF84F8365014E094F83410032939
:102C700003D13A462146FFF7C3FFE565A4F860504B
:102C80002046276402F014FB2046FFF7C7FE04200D
:102C900084F8360084F8356084F8345075E770B5F0
:102CA0000C6B049DC98F0AE0E668864204D1C4E932
:102CB00004022383E56170BD491E89B220340029D6
:102CC000F2D170BDF8B50C46054691F836100026D5
:102CD0000698082944D2DFE801F043430404434343
:102CE000292994F8341003291AD0E265A4F8603039
:102CF000206435B12046FFF791FE21462846FFF7B4
:102D000046FF2046FFF7F2FE84F8366024E000001C
:102D1000001B0020C80000207600002020000000DA
:102D2000009021462846FFF7BAFFE2E794F83410F6
:102D3000032916D0E265A4F860302064204602F032
:102D4000B7FA35B12046FFF769FE21462846FFF75E
:102D50001EFF042084F8360084F8356084F834605F
:102D6000F8BD009021462846FFF799FFE6E710B529
:102D70000189002914D0012912D00024022907D08A
:102D8000D0E90013CA681461C1E90343D96005E0C2
:102D9000D0E90012C1E90342C2E90314C0E90021ED
:102DA00010BD70470023FD4AFBA14361C16111685A
:102DB00019B181614861106070478361FBE72DE9BB
:102DC000F0410446F64816460F4600781D4610B1FD
:102DD00042F6E1601CE0CCB1FEF76AFB2662804659
:102DE0000026F0486662C4E9000704F10800FFF716
:102DF000F2FE2046FFF7D6FFEB490888401C08800A
:102E00004046FEF759FB2E80BDE8F08145F6C350E1
:102E10001880F9E7E54902C0E5A102C000218161FF
:102E2000FFF7D9BED0E9052100232AB151B1916144
:102E30004A61836143617047D84A116001B14B61B7
:102E4000836170479361F5E72DE9F05F0746D44849
:102E500014468946007810B143F2C9200BE047B10F
:102E6000080045F6256B0AD0012908D0A2F800B069
:102E700002E045F6C35010800020BDE8F09FC9492C
:102E80003868884202D045F6C450F4E7FEF710FBDC
:102E900082463D8A5FEA0900DFF80C9307F10806D5
:102EA000A84608D001281FD05046FEF705FBA4F81D
:102EB00000B04046E1E75FEA080006D05046FEF762
:102EC000FBFA47F25F102080F3E73846FFF7AAFFCE
:102ED000B9F800103846491EA9F80010FFF79AFF0C
:102EE0005046FEF7E9FA1DE0FEF7E6F9834607E0F3
:102EF00030685A4681683846FFF792FE6D1EADB2C3
:102F0000002DF5D13846FFF78DFFB9F8001038468F
:102F1000491EA9F80010FFF77DFF5046FEF7CCFAD6
:102F2000FFF796FB0020CEE730B4A34C029D246847
:102F300044F8802F0022238162602B4630BC01229E
:102F4000FFF72DBD2DE9FF4F05468BB09448DDE915
:102F5000186400781F46894610B146F2AE10F0E0C2
:102F6000ADB148F20101781A8F4229D019DC40F244
:102F70000111A7F201108F4222D00BDC012F1FD0CC
:102F8000022F1DD0042F1BD0082F16D118E045F6B4
:102F9000C350D6E0012813D0032811D007280CD144
:102FA0000EE0B0F5807F0BD0F4DDA0F58070013825
:102FB00006D0022804D0062802D045F62560C0E0DD
:102FC00078492868884202D045F6C450B9E0F8052F
:102FD00001D5012000E0002080460EB100203060C5
:102FE00007F00F000990FEF763FA834609987349CA
:102FF00001283FD002284DD0042803D0082822D031
:10300000584684E0286A00EA090ACA450DD1B8F199
:10301000000F02D020EA0A00286267480068C0F862
:1030200084A01CE0686A30601BE0380439D558463B
:10303000FEF742FA46F2B01083E05846FEF73CFA3B
:1030400046F663507DE0286A00EA09025FEA020A58
:10305000EBD0B8F1000F18D020EA0A0014E0002EDF
:10306000E0D15846FEF728FA0020208050460FB0E5
:10307000BDE8F08F286A29EA000ACA45D5D1B8F11F
:10308000000F02D040EA0A0028624B490968C1F8E3
:1030900084A0E4E7286A29EA00025FEA020AEED186
:1030A000C3E708780028C8D10D9800903B464A46EF
:1030B000294601A8FFF738FF5846FEF7FDF9FFF74C
:1030C000C7FAFEF7F5F93C4B1A6892F8351051B182
:1030D00001291FD002292DD0032923D0FEF7ECF9B6
:1030E00046F62E602DE00EB1116C3160002727806E
:1030F0001968B8F1000FD1F884602BD00999012923
:1031000025D0022923D004291ED008291CD0FEF77F
:10311000D3F952E70EB1116C3160FEF7CDF946F2EA
:10312000A9100EE00EB100213160FEF7C5F947F29B
:10313000D92006E00EB1116C3160FEF7BDF945F6FD
:10314000C2502080002092E7296AB14301E0296A39
:1031500031432962FEF7B0F92780304687E72DE931
:10316000F05F80460E480F461446007810B146F2D4
:10317000AA1027E0B8F1000F22D04FF4807A57B19F
:10318000574521D0B7F5004F1ED0B7F5014F1BD0E2
:1031900045F6256016E017E02000000060000020E2
:1031A0005C000020464C4147640000204E4F4E45D5
:1031B0003F464C4147000000C8000020900000201E
:1031C00045F6C35010801AE08A49D8F800008842BA
:1031D00002D045F6C450F5E7FEF76AF98146B8F823
:1031E000100008F1080520B10026FEF765F88346B7
:1031F00011E04846FEF760F946F2AB10208000204F
:103200003BE628685A4681684046FFF77CFC761CFE
:10321000B6B2574502D128890028F2D14846FEF7B8
:103220004BF9380401D4FFF713FA00202080304610
:1032300023E670B504467048007820B146F2AE101F
:103240002080002070BDFEF733F96C490968D1F881
:103250008450FEF731F900202080284670BD70B5FB
:103260000025C0F8841080F8355080F834500446AA
:10327000026490F8360008280ED2DFE800F00D0D49
:1032800004040D0D0A0A2046FFF730FC84F836507E
:1032900002E0042084F836002046BDE87040FFF7C5
:1032A000BDBB2DE9F0479A4690460D460446089E60
:1032B000FEF7FEF807465FEA08001BD0012807D09A
:1032C000B0F5004F16D06FF4004118EB010F0BD191
:1032D000206AA843C4E9080A218A04F108004FF0D3
:1032E000000951B1056840E03846FEF7E5F845F6BB
:1032F00025601CE0206A2843ECE73846FEF7DCF83E
:10330000A6F80090206ABDE8F08790F888106D68F4
:1033100001F00F01012917D002291DD0042909D07D
:1033200008290CD03846FEF7C7F843F6FF20308056
:103330000020E8E7216AD0F88020114009E0216AE6
:10334000D0F8802011400BE0D0F88010236A0A46A4
:1033500099438A4205D007E0D0F88010226A914351
:1033600011B15246FFF77BFF15B1A8680028CCD1F8
:103370003846FEF7A1F85FEA084001D4FFF768F984
:10338000FEF796F8246AFEF797F8A6F80090204614
:10339000B9E7F8B514460F4606001D460CD074B1C7
:1033A000012C0CD0B4F5004F09D06FF40040C4429A
:1033B00005D045F6256008E045F6C35005E00D4907
:1033C0003068884204D045F6C45018800020F8BD0B
:1033D000FDF772FF03462246394630460095FFF757
:1033E00060FFF8BD064A00211160064A1180018085
:1033F00070470000464C41475C000020C800002098
:103400006000002064000020504B00228261196897
:1034100019B1C161886118607047C261FBE72DE98D
:10342000F04704464A48DDE9087500789846164694
:103430008A4610B145F2B96014E045F2BB615EB155
:10344000B8F1020F01D2481C0CE045F2C160042F14
:1034500008D316F0030F02D02980BDE8F08717F0DB
:10346000030F01D02880F8E7A8F101018BB23246A2
:10347000002104E0D0191060491C024689B299422B
:10348000F8D34FF00009C2F80090FEF711F8844617
:10349000304884E84104E660A4F81480A4F812805F
:1034A00027822046FFF7B0FF2B490888401C088080
:1034B0006046FEF701F8A5F80090CEE770B504006D
:1034C0000D460ED0FDF7F4FFA18A71B1E668491EE2
:1034D0003268E260A182FDF7EFFF002028803046CD
:1034E00070BD45F2BF60088004E0FDF7E5FF45F2DE
:1034F000C2602880002070BD70B50E4604001546DD
:103500000BD06EB1FDF7D4FFA18A628A91420BD332
:10351000FDF7D2FF45F2BA600FE045F2BF6001E06F
:1035200045F2BE60108070BDE1683160E660A18A3E
:10353000491CA182FDF7C0FF0020288070BD034A0E
:1035400000211160044A118001807047680000204A
:103550005C0000204D454D206C00002010B5491E38
:103560008CB2002100F110020B4608E0E0E80223D3
:10357000491C20F8083B89B240F8043C1032A142B3
:10358000F4D3036043600381C36010BD70B5524D36
:103590000446286880B1514E308880B181B22868D5
:1035A000FFF7DCFF4E4829680160318881800021E7
:1035B000C1800181218070BD45F21E7001E045F29D
:1035C0001D70208070BD10B5428992B144490368D6
:1035D0000C681C6043680B60CB8844891B1BCB8044
:1035E0008B88448923448B80002141818181016043
:1035F0004160104610BD018100214181818101603F
:1036000041607047F0B544890025CCB144682789F2
:1036100066680F800AB1E168116021684160B9B144
:103620004189491E41812E480168216004608188DA
:10363000491C8180C188491EC1801D803046F0BD73
:103640000D8002B1156046F2925018800020F0BD46
:1036500005604581E7E7F0B54489DDE905E60589C0
:10366000AC4202D346F293501EE01D4DAF88CFB15D
:103670002C687F1ED4F800C0C5F800C0AF80EF886A
:103680007F1CBFB2EF80B5F808C0BC4500D22F81C7
:103690004789002557B1DB060CD403681C60256000
:1036A00004600AE045F21D703080F0BD0460012323
:1036B000446004E043682360446043895B1C4381A9
:1036C00087899BB29F4200D2838161602281C4F8C6
:1036D0000CE03580F0BD0000386600081266000876
:1036E000F41A00200023FB4AF9A14361C16111686B
:1036F00019B181614861106070478361FBE72DE972
:10370000F0410446F4480E461546007810B142F6E2
:10371000E16021E0F4B1FDF7CBFE0746EF48C4E9D4
:1037200000060026266284F825604020A66284F800
:10373000240004F10800FFF74EFA2046FFF7D2FFFD
:10374000E7490888401C08803846FDF7B5FE2E8002
:10375000BDE8F08145F6C3501080F9E7E14902C0A9
:10376000E1A102C00021816141770162402101771E
:10377000FFF731BAD0E9052100232AB151B1916197
:103780004A61836143617047D24A116001B14B6164
:10379000836170479361F5E72DE9F05F0746CE48F6
:1037A0000E461446007810B143F2C92008E02FB14C
:1037B00046B1012E06D045F6256001E045F6C3501E
:1037C000108062E0C5493868884202D045F6C4508E
:1037D000F6E7FDF76DFE3D8ADFF804B3824607F198
:1037E0000808A9463EB1012E20D05046FDF764FEE0
:1037F00045F6256007E0B9F1000F08D05046FDF707
:103800005BFE47F25F1020804846BDE8F09F3846D7
:10381000FFF7B0FFBBF800103846491EABF80010A8
:10382000FFF79CFF5046FDF747FE4BE03E6A16B39C
:1038300096F8370097F8241088421CD096F8360086
:1038400008281CD2DFE800F004111414111114141C
:103850003046FFF768F897F8240086F8370000F044
:1038600018FA3046FFF717F905E086F8371002E03E
:103870003046FFF797F9FDF71FFD064610E050466A
:10388000FDF71AFE46F62D6020800020BDE7D8F82F
:103890000000324681683846FFF7C2F96D1EADB2AE
:1038A000002DF4D13846FFF765FFBBF8001038460D
:1038B000491EABF80010FFF751FF5046FDF7FCFD25
:1038C000FEF7C6FE00209EE72DE9F04F064682482F
:1038D00089B01C460078129D90468B4610B146F286
:1038E000AE109BE046B1B8F1000F08D0B8F5004F1C
:1038F00005D045F6256091E045F6C3508EE0774946
:103900003068884202D045F6C45087E04FF0000A84
:103910000CB1C4F800A0FDF7CBFD814696F8250058
:10392000734A78B1376A11688F421FD1401C86F8FC
:1039300025000CB1B06A20604846FDF7BDFD45F298
:1039400082706BE01068306290F8370086F82400CF
:10395000012086F825000CB1B06A20604846FDF7CA
:10396000ABFDA5F800A009B0BDE8F08F5FEA084004
:1039700005D54846FDF7A0FD46F2B0104EE05D4883
:10398000007828B14846FDF797FD46F6635045E0BC
:1039900097F8370091F83710904688421ED997F86B
:1039A0003600082835D2DFE800F00413161613138A
:1039B00016163846FEF7B7FFD8F8000090F8370023
:1039C00087F8370000F065F93846FFF74AF805E058
:1039D00087F8371002E03846FFF7E4F85B46042228
:1039E00031466846FEF7DBFF4846FDF765FDFEF70A
:1039F0002FFEFDF75DFDD8F8002092F8351079B163
:103A0000012913D0022920D0032915D046F62E61B2
:103A100017E04846FDF750FD46F62D602880A2E7E6
:103A20000CB1116C2160A5F800A00BE00CB1116C79
:103A3000216046F2A91104E00CB1C4F800A047F2DD
:103A4000D9212980FDF738FD8DE70CB1116C21607B
:103A500045F6C251F5E72DE9F05F80461E480F4656
:103A60001446007810B146F2AA1012E0B8F1000F27
:103A70000DD04FF4807A77B157450CD0B7F5004F91
:103A800009D0B7F5014F06D045F6256001E045F6AF
:103A9000C35010801AE01149D8F80000884202D0C3
:103AA00045F6C450F5E7FDF703FD8146B8F8100070
:103AB00008F1080520B10026FDF7FEFB834625E04E
:103AC0004846FDF7F9FC46F2AB10208000209CE64A
:103AD00020000000700000205C0000204D5554586C
:103AE000740000204E4F4E453F4D55544558000040
:103AF000C80000209000002028685A46816840468F
:103B0000FFF701F8761CB6B2574502D12889002884
:103B1000F2D14846FDF7D0FC380401D4FEF798FDF9
:103B200000202080304670E62DE9F84F04464648D4
:103B300015468946007810B146F20E2011E03CB1DE
:103B4000080008D0B1F5004F05D045F6256008E023
:103B500045F6C35005E03D492068884204D045F64B
:103B6000C4501080BDE8F88FFDF7A2FCDFF8E080BC
:103B70008246216AD8F80000814205D05046FDF700
:103B80009BFC45F2817010E0FDF796FB0646A062B3
:103B900094F82500401E10F0FF0084F8250006D0A0
:103BA0005046FDF789FC45F283702880DAE7208AC9
:103BB00004F108074FF0000BB0B3D8F8000094F8F8
:103BC000243090F837209A4213D0FEF7ACFED8F894
:103BD000001094F8240081F8370000F05AF8D8F863
:103BE0000000FEF758FFD8F800001A4990F8370097
:103BF0000870386800231A468168216291F83700FE
:103C000084F82400012084F8250020460096FFF760
:103C100059F85046FDF750FC5FEA094001D4FEF721
:103C200017FDA5F800B09DE7FFE75E465046C4F8D3
:103C300020B0FDF741FC2E8094E7074A0021116077
:103C4000064A1180018070475C0000204D55545891
:103C5000C8000020760000207000002074000020C2
:103C600000201A4A014642F82010401C0228FAD3CC
:103C7000704710B50024154802E02034E4B2001D5E
:103C800001680029F9D00846FDF71DFC2044C0B2A8
:103C900010BD00F01F0241090120C2F11F02904037
:103CA0000A4A52F82130034342F82130704700F0AD
:103CB0001F0241090120C2F11F029040034A52F83D
:103CC0002130834342F82130704700003400002047
:103CD0000023F84AF6A14361C161116819B18161FD
:103CE0004861106070478361FBE72DE9F0410446AD
:103CF000F14816460F4600781D4610B142F6E160C5
:103D000023E0ECB1FEB1FDF7D3FB8046EB48C4E9FC
:103D10000007314604F12000FFF76DFC04F10800B4
:103D2000FEF759FF2046FFF7D3FFE5490888401CFE
:103D300008804046FDF7C0FB00202880BDE8F081E8
:103D400045F6C35001E046F294501880F6E770B58E
:103D5000044620300546FFF736FCDA482060DAA03A
:103D6000606000212846FFF746FC04F10800BDE82A
:103D70007040FEF730BFD0E9052100232AB151B1D0
:103D800091614A61836143617047CA4A116001B120
:103D90004B61836170479361F5E72DE9F05F07465A
:103DA000C54814468946007810B143F2C9200BE09B
:103DB00047B1080045F6256B0AD0012908D0A2F8C2
:103DC00000B002E045F6C35010800020BDE8F09F2F
:103DD000BA493868884202D045F6C450F4E7FDF786
:103DE00067FB82463D8A5FEA0900DFF8D49207F15B
:103DF0000806A84608D001281FD05046FDF75CFBF6
:103E0000A4F800B04046E1E75FEA080006D050465B
:103E1000FDF752FB47F25F102080F3E73846FFF7CB
:103E2000AAFFB9F800103846491EA9F80010FFF79C
:103E30008EFF5046FDF740FB1DE0FDF73DFA83463F
:103E400007E030685A4681683846FEF7E9FE6D1E85
:103E5000ADB2002DF5D13846FFF78DFFB9F800104F
:103E60003846491EA9F80010FFF771FF5046FDF7CC
:103E700023FBFEF7EDFB0020CEE770B505468E482C
:103E80000C46007810B14FF46C500BE045B18B49F3
:103E90002868884208D045F6C4502080002070BDB4
:103EA00045F6C3500880F9E7FDF702FB064605F129
:103EB0002000FFF788FB05463046FDF7FDFA00209D
:103EC0002080284670BD2DE9F04F074689B07A481A
:103ED000DDE9125400781E4691468B4610B146F239
:103EE000AE1040E047B156B110000BD0B2F5004F14
:103EF00008D045F6256036E045F6C35033E046F27B
:103F0000D52030E06D493868884202D045F6C4506B
:103F100029E04FF000080DB1C5F80080FDF7C8FAA0
:103F2000009023462A46314607F12000FFF76AFB3E
:103F30008246208840B15FEA09400CD50098FDF721
:103F4000BBFA46F2B0100EE00098FDF7B5FA504605
:103F500009B0BDE8F08F5D48007838B10098FDF7F2
:103F6000ABFA46F6635020800020F1E75B4605225D
:103F7000394601A8FEF713FD0098FDF79DFAFEF7FC
:103F800067FBFDF795FA524A0346116891F8350030
:103F900060B1012815D002282AD003284FF000076D
:103FA00019D0A6F8008046F62E601BE0B1F860003C
:103FB000CF6D308015B11068006C2860A4F80080C7
:103FC00011E00027A6F8008015B11068006C286089
:103FD00046F2A91006E04046A6F8008005B1286028
:103FE00047F2D92020801846FDF766FA3846AFE739
:103FF0000027A6F8008015B11068006C286045F60F
:10400000C250EFE72DE9F05F80462B480F4614467B
:10401000007810B146F2AA1012E0B8F1000F0DD0EE
:104020004FF4807A77B157450CD0B7F5004F09D0DF
:10403000B7F5014F06D045F6256001E045F6C350BF
:1040400010801AE01D49D8F80000884202D045F6D9
:10405000C450F5E7FDF72CFA8146B8F8100008F1D6
:10406000080520B10026FDF727F9834611E04846F0
:10407000FDF722FA46F2AB1020800020A6E6286861
:104080005A4681684046FEF73EFD761CB6B257455B
:1040900002D128890028F2D14846FDF70DFA3804EC
:1040A00001D4FEF7D5FA0020208030468EE60000CD
:1040B000200000007C0000205C0000205155455588
:1040C000800000204E4F4E453F51000090000020E0
:1040D000C80000202DE9FF4F83B01E46DDE9107AAD
:1040E00093468046FDF7E4F98146B8F8104008F1A0
:1040F000080024B1B10500D4012405681CE0F006D5
:1041000001D4002300E01023CDE9007A5A4608F1DB
:1041100020000499FFF79FFA07B04846BDE8F04F2A
:10412000FDF7CAB9A9686D685B4600974046049AD6
:10413000FEF7C8FD641EA4B2002CF3D14846FDF77B
:10414000BBF9300401D4FEF783FA0021AAF800106D
:1041500007B0FEE62DE9FC411C46089D174688463F
:1041600006000ED04FF40071B4F5004F18D00BDCF0
:10417000B4B1102C14D08C4212D0B4F5047F0CD101
:104180000EE045F6C35011E0A4F50040103807D00A
:10419000B0F5F87F04D0884202D045F6256005E0EE
:1041A0000D493068884204D045F6C4502880BDE8E7
:1041B000FC81FDF781F8CDE9000523463A464146EA
:1041C0003046FFF787FFF2E7044A00211160044AF6
:1041D0001180018070470000515545557C0000203A
:1041E000800000200023F74AF5A14361C1611168F6
:1041F00019B181614861106070478361FBE72DE967
:10420000F0410446F04816460F4600781D4610B1AE
:1042100042F6E1601CE0CCB1FDF74AF92662804627
:104220000026EA486662C4E9000704F10800FEF7C8
:10423000D2FC2046FFF7D6FFE5490888401C0880DD
:104240004046FDF739F92E80BDE8F08145F6C350B0
:104250001880F9E7DF4940F8201B002102C040F830
:104260002019DDA102C0FEF7B6BCD0E9052100236C
:104270002AB151B191614A61836143617047D14A6A
:10428000116001B14B61836170479361F5E72DE9DE
:10429000F05F0746CC4814468946007810B143F2D7
:1042A000C9200BE047B1080045F6256B0AD001296B
:1042B00008D0A2F800B002E045F6C35010800020FC
:1042C000BDE8F09FC1493868884202D045F6C45025
:1042D000F4E7FDF7EDF882463D8A5FEA0900DFF872
:1042E000F09207F10806A84608D001281FD05046D2
:1042F000FDF7E2F8A4F800B04046E1E75FEA080005
:1043000006D05046FDF7D8F847F25F102080F3E75B
:104310003846FFF7AAFFB9F800103846491EA9F839
:104320000010FFF797FF5046FDF7C6F81DE0FCF7B9
:10433000C3FF834607E030685A4681683846FEF777
:104340006FFC6D1EADB2002DF5D13846FFF78DFF25
:10435000B9F800103846491EA9F80010FFF77AFF97
:104360005046FDF7A9F8FEF773F90020CEE72DE9D6
:10437000F04F0646944889B01C460078129D92463C
:104380008B4610B146F2AE100AE03EB1100009D0E3
:10439000B2F5004F06D045F6256001E045F6C35062
:1043A000288056E089483168814202D045F6C450E1
:1043B000F6E74FF000090CB1C4F80090FDF778F86B
:1043C000D6F820800746B8F1000F0DD0A8F10108FB
:1043D000C6F820800CB1706A20603846346AFDF758
:1043E0006BF8A5F800904CE05FEA0A4009D5384622
:1043F000FDF762F846F2B0102880404609B0BDE8EB
:10440000F08F7748007828B13846FDF755F846F622
:104410006350C5E75B46062231466846FEF7BFFAA1
:104420003846FDF749F8FEF713F9FDF741F8024663
:104430006C48016891F8350068B1012811D0022854
:1044400021D0032813D046F62E6028801046FDF7B1
:1044500033F80020D2E70CB1086C2060A5F800907A
:104460000BE00CB1086C206046F2A91004E00CB11E
:10447000C4F8009047F2D92028801046346AFDF72E
:104480001BF82046BAE70CB1086C206045F6C25014
:10449000F2E72DE9F05F80464B480F46144600785E
:1044A00010B146F2AA1012E0B8F1000F0DD04FF48F
:1044B000807A77B157450CD0B7F5004F09D0B7F5E2
:1044C000014F06D045F6256001E045F6C350108047
:1044D0001AE03E49D8F80000884202D045F6C450A0
:1044E000F5E7FCF7E5FF8146B8F8100008F108058C
:1044F00020B10026FCF7E0FE834611E04846FCF7B9
:10450000DBFF46F2AB1020800020D9E628685A462F
:1045100081684046FEF7F7FA761CB6B2574502D1DD
:1045200028890028F2D14846FCF7C6FF380401D498
:10453000FEF78EF8002020803046C1E62DE9F84FC6
:104540001F4690468A460646FCF7B2FF8146348AEB
:1045500006F108004FF0000B2CB15FEA8A5100D43D
:10456000012405681DE0346A601C06D0641CC6E99D
:1045700008484846FCF7A0FF1EE04846FCF79CFFB1
:1045800046F6C55038800020BDE8F88FA9686D68F0
:1045900000231A463046CDF80080FEF793FB641ED8
:1045A000A4B2002CF2D14846346AFCF785FF5FEADA
:1045B0000A4001D4FEF74CF8A7F800B02046E3E724
:1045C00020000000940000205C00002053454D4175
:1045D000980000204E4F4E453F53454D00000000CF
:1045E00090000020C800002070B50C46060015465B
:1045F0000CD074B1B4F5007F0BD0B4F5004F08D0E7
:10460000B4F5024F05D045F6256008E045F6C350E5
:1046100005E020493068884204D045F6C450108037
:10462000002070BDFCF748FE02462B46214630466E
:10463000BDE8704082E770B5044617480E4615463F
:10464000007810B146F6C65006E03CB1114920682A
:10465000884206D045F6C450108070BD45F6C35060
:10466000FAE700202880FCF723FF216A41B9218A5C
:1046700031B147F25F112980BDE87040FCF71CBFE3
:104680002662F9E7054A00211160054A1180018080
:104690007047000053454D415C000020940000200D
:1046A000980000202DE9F0410446FB480D461646CF
:1046B000007810B147F2491003E03F2D04D346F2D1
:1046C00073201080BDE8F0816CB10027FCF7F0FE8C
:1046D000804694F83600082836D2DFE800F00C2631
:1046E0001C1C26261C1CFCF7E3FEEC490C68FCF79E
:1046F000E3FE0127EAE72046FEF715F984F8375074
:104700002846FFF7C6FA204617B1FEF7AAF913E0CC
:10471000FEF7C1F910E094F8340008280CD2DFE865
:1047200000F00B0404070707070484F8375003E080
:1047300029462046FEF736FA4046FCF7BDFEFDF757
:1047400087FF00203080BDE74046FCF7B5FE46F607
:104750002D60F7E7D24B0022C0F8B820196829B1C4
:10476000C0F8BC10C1F8B80018607047C0F8BC2091
:10477000FAE770B50025056085604560C560056194
:10478000456104468561C7A0C4E907506562A5621A
:10479000E5622564E565A4F86050294604F16400EB
:1047A000FEF729FF6567A567C4F88050A4F8885014
:1047B0000020C4F8845004EB8001401CCD6710F049
:1047C000FF00F8D06564C4F8A450C4F8A850A563ED
:1047D00084F88A50C4F8B050C4F8AC50A5874FF0A4
:1047E0000040C4E9120525656565A565A4F88C50EF
:1047F000A4F88E50C4F89050C4F894503434FCF7A8
:104800005BFDC4E91905C4F8805004F8015B402041
:1048100004F8015B04F8015B04F8810BA3A020C439
:10482000C4E9005070BD2DE9FF4F83B004469A489B
:10483000DDE91785DDE910970078139E934610B1E6
:1048400047F24A1025E054B1BBF1000F0AD067B11E
:104850009748006886420BD246F6306019E047F26E
:10486000AD1016E047F24F1013E046F62F6010E04F
:104870001298B04202D346F631600AE046F2732045
:10488000B9F1400F05D2B9F13F0F06D189498C42E9
:1048900003D0288007B0BDE8F08F2046FFF769FFFE
:1048A0004FF0000AA5F800A05FEAC8700AD05FEADE
:1048B000887007D538460021524601E004C0491CE3
:1048C000B142FBD31298CDE9006807EB80052B4677
:1048D0003A465846069901F014FBC4F828B00699E8
:1048E000E1620499216284F83790A56020601598F0
:1048F000606516986762A6636060A4F83C8000203B
:10490000514604EB8002401CD16710F0FF00F8D044
:1049100004F164001499FEF76EFE204601F0DFFA00
:10492000FCF7C6FD054694F83700FFF7B2F92046BC
:10493000FEF7B1F82046FFF70DFF5F490888401CDD
:1049400008805E4800780128284604D007B0BDE8FA
:10495000F04FFCF7B1BDFCF7AFFD07B0BDE8F04F7D
:10496000FDF776BED0E92E2100234AB181B1C2F80D
:10497000BC10C1F8B820C0F8BC30C0F8B8307047DF
:10498000474A116009B1C1F8B830C0F8BC3070476F
:10499000C2F8BC30F1E770B504463F480D460078D8
:1049A00010B147F24E1004E04248844203D147F26E
:1049B0004C10088070BD2CB9FCF77AFD37490C68A3
:1049C000FCF77AFDFCF774FD064694F836000828DB
:1049D0003AD2DFE800F004080C0C1C080C0C20464E
:1049E000FDF7A1FF13E0204600F062FC0FE0204637
:1049F00000F05EFC94F83400072808D2DFE800F0ED
:104A000007040704040404002046FEF707F804F135
:104A10006400FEF7D8FD204601F067FA2046FFF754
:104A2000A1FF25490888401E08802046FFF7A1FE07
:104A3000FF2084F836003046FCF73EFD0020288039
:104A4000BDE87040FDF704BE3046FCF735FD46F684
:104A50002D60288070BD70B504460F480D46007863
:104A600020B14FF46C500880002070BD2CB9FCF7C9
:104A70001FFD0A490C68FCF71FFDFCF719FD0646EF
:104A800004F16400FEF79FFD04463046FCF714FD78
:104A900000202880204670BD5C000020C800002057
:104AA000A00000203F5461736B0000002000000054
:104AB0003C660008301A0020A40000205D000020A1
:104AC0002DE9F84F8346FC480A9D1C46007816469F
:104AD0000F4610B146F2AE100AE03EB1080009D010
:104AE000B1F5004F06D045F6256001E046F2D5202D
:104AF00028801CE04FF000090CB1C4F80090FCF7CE
:104B0000D7FCDFF8B88300902B46D8F80000224687
:104B100031466430FEF776FD8246288850B138046D
:104B200019D546F2B01028800098FCF7C5FC00208B
:104B3000BDE8F88F54B1FCF7BFFB2168401AD8F8E4
:104B4000001048678A6F824200D288670098FCF79D
:104B5000B3FC5046ECE7DA48007828B10098FCF73F
:104B6000ABFC46F66350C3E700215B4602220846D1
:104B7000FDF715FF0098FCF79FFCFDF769FDFCF7BA
:104B800097FC8246D8F8000090F8351091B10129C1
:104B90004FF0000726D0A6F800901CB1D8F800000E
:104BA000006C206047F2D92028805046FCF784FC36
:104BB0003846BDE7C76DB0F8600030807CB1D8F8EA
:104BC0000000006C2060FCF777FB0146D8F800007D
:104BD000026C891A4167826F8A4200D28167A5F808
:104BE0000090E2E74846A6F8009004B1206046F243
:104BF000A910D9E72DE9F0410646AF480F46144603
:104C0000007810B146F2AA1005E037B1B7F5004FB1
:104C100003D045F62560108017E0FCF749FC0546F7
:104C20001EB1A6480068864205D12846FCF744FC20
:104C300046F2AC1008E096F83400022807D0284667
:104C4000FCF73AFC46F2AB10208000203AE5FCF776
:104C500033FB024631460020FDF755FF2846FCF79E
:104C60002BFC380401D4FDF7F3FC00202080012048
:104C700028E52DE9FC479846DDE90A6591468A4614
:104C80000446FCF715FC07460CB98C480468002064
:104C9000288094F83600082828D2DFE800F00808B9
:104CA00004040808040494F8340002280DD0CDE967
:104CB000006543464A46514604F16400FEF7CBFCCA
:104CC0003846BDE8FC47FCF7F7BB4B465246214649
:104CD00000200096FDF7F6FF3846FCF7EDFB5FEA93
:104CE000084009D4BDE8FC47FDF7B2BC3846FCF7E4
:104CF000E3FB46F62D602880BDE8FC872DE9FC41EA
:104D00001C00089D16460F4680460DD0102C0BD077
:104D1000B4F5004F08D0A4F50040103804D045F693
:104D200025602880BDE8FC81FCF7C6FACDE90005C6
:104D30002346324639464046FFF79BFFF2E770B5FF
:104D40001546044621B146F6791010800020A2E6EF
:104D5000FCF7AEFB0CB959490C68E46FFCF7ACFBEF
:104D600000202880204696E610B50446FCF7A0FBFC
:104D700054490A7832B145F6DA112180FCF79CFBE0
:104D8000012010BD01220A70FCF796FB0020208054
:104D900010BD70B51D461646044619B146F6791089
:104DA000188078E6FCF784FB0CB944490C68E66788
:104DB000FCF782FB002028806DE670B50D460446A6
:104DC000FCF776FB00210646298094F83600082877
:104DD00040D2DFE800F0040404040B1F29333046FE
:104DE000FCF76AFB47F2531028800FE094F88A0022
:104DF000401E10F0FF0084F88A0004D184F83610B9
:104E00002046FDF773FE3046FCF756FBBDE87040C8
:104E1000FDF71EBC94F88A00401E10F0FF0084F8D5
:104E20008A00F0D1012012E094F88A00401E10F0B0
:104E3000FF0084F88A00E6D1022008E094F88A0096
:104E4000401E10F0FF0084F88A00DCD1032084F8B3
:104E50003600D8E73046FCF72FFB46F62D60288059
:104E600019E670B5054614480C46007818B147F2AB
:104E7000551008800FE6FCF71BFB1DB10F490968B0
:104E80008D4205D1FCF718FB47F25710208002E64F
:104E9000FCF712FB21462846BDE870408DE72DE95E
:104EA000F0478246044814461D460078884658B1AB
:104EB00046F2AE100FE000005C000020C8000020A9
:104EC00090000020A6000020080006D0B1F5004F99
:104ED00003D045F62560188035E0002604B1266031
:104EE000FCF7E6FAEB4F81463868416CC9B1491EC0
:104EF000884641640CB1006C2060FCF7DDF939682C
:104F00000A6C801AC1F8A400D1F8A820824201D20C
:104F1000C1F8A8004846FCF7CFFA2E804046BDE80D
:104F2000F0875FEA084005D54846FCF7C5FA46F227
:104F3000B01007E0D848007838B14846FCF7BCFA12
:104F400046F6635028800020E9E7002153460722F7
:104F50000846FDF724FD4846FCF7AEFAFDF778FB5E
:104F6000FCF7A6FA3968804691F8350030B101287F
:104F700016D003281AD046F62E601BE074B1086CD8
:104F80002060FCF799F939680A6C801AC1F8A4000E
:104F9000D1F8A820824201D2C1F8A8002E800AE0F0
:104FA0000CB1086C206046F2A91003E004B1266041
:104FB00047F2D92028803868446C4046FCF77CFAD8
:104FC0002046ACE72DE9F0410546B4480E461446AC
:104FD000007810B146F2AA1005E036B1B6F5004FE0
:104FE00003D045F62560108014E0FCF761FA1DB18E
:104FF000A84909688D4204D1FCF75EFA46F2AC106C
:1050000007E095F83410072906D0FCF755FA46F268
:10501000AB102080002019E6FCF74EFAFCF748FAA6
:105020000746FCF749F9024629460020FDF76BFDCB
:105030003846FCF741FA300401D4FDF709FB0020A3
:105040002080012002E62DE9F8431E4615468946D8
:105050000446FCF72DFA07460CB98E480468002078
:1050600046F6C5582564308094F8360008282BD2BF
:10507000DFE800F004040D0D04040D0D656C681CE0
:105080001AD06D1C38466564FCF716FA23E094F8D4
:1050900034000728F2D100231A462146184600950D
:1050A000FDF710FE3846656CFCF706FA5FEA09402A
:1050B00011D4FDF7CDFA0EE03846FCF7FDF9A6F85D
:1050C00000800020BDE8F8833846FCF7F5F946F685
:1050D0002D60308000252846F4E770B50C000646A8
:1050E000154607D0B4F5004F04D045F62560108072
:1050F0000020D0E4FCF7E0F802462B46214630467B
:10510000BDE870409FE72DE9F041044663480F4633
:105110001546007820B146F6C6501080002095E56F
:10512000FCF7C6F90CB95B490C68666C6764FCF760
:10513000C3F900202880304688E52DE9F041054676
:10514000564816460F4600781C4610B147F25910D3
:1051500007E046F2D52027B11EB1FCF7A9F915B139
:1051600003E0188072E54B490D684FF0000829688C
:1051700041B195F83C10C9070DD0FCF79DF900200E
:10518000696A14E0FCF798F9C7F8008047F25210FA
:10519000C6F8008007E0FCF78FF9C7F8008047F2F7
:1051A0005410C6F80080208050E5401C091D0A6894
:1051B000002AFAD03860A96B081A3060A4F8008081
:1051C00044E570B50D460446FCF772F906463148D1
:1051D00004B904680068844208D12F48007828B1D7
:1051E0003046FCF769F946F6635030E0002028802D
:1051F00094F836100120082924D2DFE801F0040DCC
:1052000016181E1E1E1E042184F8361084F88A000B
:105210002046FDF788FB01E0052109E03046FCF758
:105220004BF9BDE87040FDF713BA062100E00721F5
:1052300084F8361084F88A00F0E714F88A0F401CCE
:105240002070EBE73046FCF737F946F62D602880F2
:1052500021E4124A127812B147F25D1004E0104ABC
:10526000904203D147F25B1008807047A9E70D4ACE
:10527000002111600C4A11800C4A116001807047B6
:10528000044808B5006800F036FE69460020FFF7C4
:1052900082FB08BDC8000020900000205C000020B8
:1052A000301A0020A0000020A40000209C00002054
:1052B00010B5C169002915D0002404650A6882422E
:1052C00004D142690A6032B1946104E0D0E9052357
:1052D0005A6102B1936144618461C461C464888885
:1052E000401E888010BD2DE9F84FFCF7E1F80090D2
:1052F000FBF7E2FFA54E8346A54930684FF003094E
:10530000401C306009880025B0FBF1F201FB12005F
:10531000A04980B22F4651F830404FF0040AC4B380
:1053200094F83600D4F8148008284DD2DFE800F055
:105330004C044C104C254C32E06C3168421A22650A
:10534000884240D184F836702046FDF7CFFB3BE021
:10535000E06C3168421A2265884234D1E765A4F8CE
:105360006070FBF7A9FF20642046FDF757FB20463D
:10537000FDF7BCFB84F8367020E0E06C3168421A1F
:10538000226588421FD184F836A02046FFF790FF9F
:105390001AE01CE0E06C3168421A2265884212D1A2
:1053A000E765A4F86070FBF787FF20642046FDF7EF
:1053B00035FB2046FFF77CFF84F836A084F8359053
:1053C00084F8347000E001254446002DA7D0FBF797
:1053D00073FF7149A0EB0B000A68824200D208609B
:1053E0000098BDE8F84FFCF767B81CB56B4C00217E
:1053F0006B4601AA0846FFF752FDBDF800000028E1
:10540000F5D120780128F2D1FFF76DFFEFE710B555
:10541000002002465F4B5E4C06E003EBC001401CDF
:105420000A608A80CA8080B221888842F5D310BD84
:1054300030B50446554889B00025056056480560DA
:10544000FFF7E5FF564A106840B15648564B0168D1
:105450001B68994205D247F2132008E047F2122058
:1054600005E052490B783F2B04D347F211202080EE
:1054700009B030BD0B2305950695CDE907344C4B9B
:10548000006812681B68CDE9023004950192087823
:105490000023AFF2A902009046A14B48FFF7C3F9E1
:1054A000E6E7F0B5394C002647F27E252468042A49
:1054B00008D0B1B3354D082A2D680D440BD0C0E992
:1054C000135115E00A1B521E12F5803F2AD8521CB8
:1054D000C0E913120CE0826C0A44171B7F1E8F4236
:1054E00001D2C26400E0C564C16C0A1B026581641C
:1054F000274AC16C1288B1FBF2F502FB1511254A4F
:1055000089B202EBC102918889B11168F1B1CD6C09
:105510002D1B0D65076DAF4212D94D6965B1294646
:10552000F5E7FFE7C6640665C6611D80F0BD46610C
:105530008661012110600BE0C0E90561486105E06A
:105540008C6974B1C0E90514606188619188491C57
:105550009180D48889B28C4200D2D180C2611E80F1
:10556000F0BDC0E9051688611060EFE710B50020B6
:105570000246084B064C04E003EBC001401CCA8005
:1055800080B221888842F7D310BD0000A800002017
:105590001466000820170020AC0000205D000020E9
:1055A000446600084C6600083C6600081066000867
:1055B0004866000875432F4F532D494949205469C7
:1055C000636B205461736B00001E00202DE9F041D5
:1055D00006469E480D461446007810B147F27520E5
:1055E00026E09B48007810B146F6635020E045B1B4
:1055F000022D06D0042D05D0082D02D045F62560D9
:1056000016E09EB1FBF754FF924F804601213868A7
:1056100023462A4680F836103146FFF742FF20889D
:1056200048B14046BDE8F041FBF746BF47F27E2057
:105630001080BDE8F0813868FDF775F94046FBF74A
:105640003BFFFDF705F800202080F2E72DE9F04749
:105650007E4D1646DDE908242D7815B147F27520F8
:1056600074E07B4D2D7815B146F663506EE012F074
:105670000E0547F27E2945F6256C05D0022D03D094
:10568000042D05D0082D15D113B90EB901B9E0B319
:1056900032F01E0700D0012767B9C2F3001247F2AB
:1056A000792C47F278284FF47A773AB142F20F72A8
:1056B000914212D9A4F800C0BDE8F087BB4202D3E2
:1056C00047F27B2042E03B2E02D947F27A203DE0B0
:1056D0003B29EFD8632802D804E0B84202D3A4F8EB
:1056E0000080E9E75C4A4FF4FA7CC1EB01111268D3
:1056F000BCFBF2FC63445343B3FBF7F34FF4616725
:10570000784300EB8100304400E021E000FB0236EA
:10571000F6B1FBF7CDFE4F4F804601213868234696
:105720002A4680F836103146FFF7BBFE208820B1AC
:105730004046BDE8F047FBF7BFBE3868FDF7F3F819
:105740004046FBF7B9FEFCF783FF00202080B3E75B
:10575000A4F80090B0E72DE9F04105463B480C461F
:10576000007818B147F27620088062E747F25116B8
:1057700065B1FBF79DFE074636480068854207D1B4
:1057800026803846BDE8F041FBF796BE0E8050E714
:1057900095F83600082824D2DFE800F00409040454
:1057A000041304043846FBF787FE268015E0002624
:1057B00085F836602846FFF77BFD2846FDF783F91C
:1057C000F0E7042085F836002846FFF771FD3846DB
:1057D000FBF772FE47F25A102080BDE8F041FCF75B
:1057E00037BF3846FBF768FE46F62D60F4E770B524
:1057F0000546FBF75DFE19490C68FBF75DFE0020CE
:105800002880204670BD70B50D460446FBF750FE5B
:1058100012490C60FBF750FE0020288070BD08B5CF
:1058200000F02EFC6A4600210D48FFF756FC0D499A
:105830000868401E086007D10B486A460068086087
:1058400000210A48FFF749FC08BD00005C00002069
:1058500090000020C800002040660008A80000203A
:10586000001E0020C4000020C0000020C41E002034
:10587000FB4B0022C262196819B10163C86218604B
:1058800070470263FBE72DE9F05F0446F548DDE968
:105890000CB5DDE90A8A00781F461646894610B124
:1058A00047F2433035E044B14046B8F1010F0BD028
:1058B000022805D045F625602BE045F6C35028E0C8
:1058C0001FB947F2403024E00EB3FBF7F1FD8446E8
:1058D000012084F82A0026620026A6616762E24859
:1058E000E661C4E90009A4F82880C4F808A0C4E966
:1058F00003B620466661FFF7BBFFDC490888401C01
:1059000008806046FBF7D8FD2E80BDE8F09F47F287
:105910003F302880F9E7002180F82A10D44A02603D
:1059200001628161D3A2C1614260416201858160EF
:10593000C16001614161704710B5D04A816900249E
:105940001288B1FBF2F302FB1311CD4A89B202EBCC
:10595000C10102690B68834203D10A602AB1546114
:1059600003E043691A6102B15361012280F82A20E1
:10597000046144618888401E888010BDD0E90B21F5
:1059800000232AB151B11163CA620363C362704735
:10599000B34A116001B1CB62036370471363F5E74B
:1059A000F8B50546AF480C46007810B147F24330D1
:1059B00009E035B1AC492868884206D045F6C450A4
:1059C0002EE047F2423008802BE06846FCF775FE77
:1059D0002846FFF7D3FFA5480188491E018095F8A6
:1059E0002A10C1B1002601290CD0022907D00329B1
:1059F00008D06846FCF79AFE47F2413010E028468E
:105A0000FFF79AFF2846FFF786FF6846FCF78EFEF1
:105A100026800120F8BD6846FCF788FE47F23D303D
:105A200020800020F8BDF8B504468E480D46007869
:105A300010B147F2433009E034B18B492068884205
:105A400006D045F6C45031E047F2423008802EE0DF
:105A50006846FCF732FE94F82A0010B300270128AC
:105A60000ED0022807D00328684616D0FCF75EFE49
:105A700047F241301AE08349A0690968461A05E0F7
:105A8000208D266A022801D106B9666A6846E66159
:105A9000FCF74CFE2F803046F8BDFCF747FE2F8008
:105AA00005E06846FCF742FE47F23D3028800020C2
:105AB000F8BD70B5022280F82A20724A01291368C5
:105AC0001ED0016AE1B16D4A194481611288002536
:105AD000B1FBF2F402FB1412694C92B204EBC20265
